:020000040800F2
:1000000000000220EDFA00083DFB00083DFB00085F
:100010003DFB00083DFB00083DFB00080000000020
:1000200000000000000000000000000011EB0008CC
:100030003DFB00080000000081ED0008E9ED00082C
:100040003DFB00083DFB00083DFB00083DFB0008B0
:100050003DFB00083DFB00083DFB00083DFB0008A0
:100060003DFB00083DFB00083DFB00083DFB000890
:100070003DFB0008A12400083DFB00083DFB0008F3
:100080008D2400083DFB00083DFB00083DFB0008F7
:100090003DFB00083DFB00083DFB00083DFB000860
:1000A0003DFB00083DFB00083DFB00083DFB000850
:1000B0003DFB00083DFB00083DFB0008B52400089F
:1000C0003DFB00083DFB00083DFB00083DFB000830
:1000D0003DFB0008F5220008792400083DFB0008DC
:1000E0003DFB00083DFB00083DFB00083DFB000810
:1000F0003DFB00083DFB00083DFB00083DFB000800
:100100003DFB00083DFB00083DFB00083DFB0008EF
:10011000C12300083DFB00083DFB00083DFB000833
:100120003DFB00083DFB0008652400083DFB00087E
:100130003DFB00083DFB00083DFB00083DFB0008BF
:100140003DFB00083DFB00083DFB00083DFB0008AF
:100150003DFB00083DFB00083DFB00083DFB00089F
:100160003DFB00083DFB00083DFB00083DFB00088F
:100170003DFB00083DFB00083DFB000800000000BF
:080180003DFB00083DFB0008F7
:1001C00010B5054C237833B9044B13B10448AFF391
:1001D00000800123237010BD3812002000000000B1
:1001E000B472010808B5034B1BB103490348AFF3D0
:1001F000008008BD000000003C120020B47201081D
:10020000844641EA000313F003036DD1403A41D321
:1002100051F8043B40F8043B51F8043B40F8043BE0
:1002200051F8043B40F8043B51F8043B40F8043BD0
:1002300051F8043B40F8043B51F8043B40F8043BC0
:1002400051F8043B40F8043B51F8043B40F8043BB0
:1002500051F8043B40F8043B51F8043B40F8043BA0
:1002600051F8043B40F8043B51F8043B40F8043B90
:1002700051F8043B40F8043B51F8043B40F8043B80
:1002800051F8043B40F8043B51F8043B40F8043B70
:10029000403ABDD2303211D351F8043B40F8043B10
:1002A00051F8043B40F8043B51F8043B40F8043B50
:1002B00051F8043B40F8043B103AEDD20C3205D320
:1002C00051F8043B40F8043B043AF9D2043208D018
:1002D000D2071CBF11F8013B00F8013B01D30B888A
:1002E00003806046704700BF082A13D38B078DD068
:1002F00010F003038AD0C3F10403D21ADB071CBF3A
:1003000011F8013B00F8013B80D331F8023B20F8A3
:10031000023B7BE7043AD9D3013A11F8013B00F8DC
:10032000013BF9D20B7803704B7843708B78837064
:100330006046704700000000000000000000000060
:1003400090F800F06DE9024520F007016FF0000C15
:1003500010F0070491F820F040F049804FF00004BD
:100360006FF00700D1E9002391F840F000F1080098
:1003700082FA4CF2A4FA8CF283FA4CF3A2FA8CF3D0
:100380004BBBD1E9022382FA4CF200F10800A4FA37
:100390008CF283FA4CF3A2FA8CF3E3B9D1E904238B
:1003A00082FA4CF200F10800A4FA8CF283FA4CF3C2
:1003B000A2FA8CF37BB9D1E9062301F1200182FA7C
:1003C0004CF200F10800A4FA8CF283FA4CF3A2FA82
:1003D0008CF3002BC6D0002A04BF04301A4612BA90
:1003E000B2FA82F2FDE8024500EBD2007047D1E993
:1003F000002304F00305C4F100004FEAC50514F022
:10040000040F91F840F00CFA05F562EA05021CBFF2
:1004100063EA050362464FF00004A9E7000000000C
:1004200001F0FF01102A2BDB10F0070F08D010F8A5
:10043000013B013A8B422DD010F0070F42B3F6D1A9
:10044000F0B441EA012141EA014122F007047FF0C2
:1004500000070023F0E80256083C85EA010586EA19
:10046000010685FA47F5A3FA87F586FA47F6A5FA55
:1004700087F68EB9EED1F0BC01F0FF0102F0070261
:1004800032B110F8013B013A83EA010313B1F8D10C
:100490000020704701387047002D06BF35460338ED
:1004A000073815F0010F07D1013015F4807F02BF26
:1004B000013015F4C03F0130F0BC0138704700BF77
:1004C00081F0004102E000BF83F0004330B54FEA05
:1004D00041044FEA430594EA050F08BF90EA020F72
:1004E0001FBF54EA000C55EA020C7FEA645C7FEA05
:1004F000655C00F0E2804FEA5454D4EB5555B8BF28
:100500006D420CDD2C4480EA020281EA030382EA98
:10051000000083EA010180EA020281EA0303362D2A
:1005200088BF30BD11F0004F4FEA01314FF4801CFD
:100530004CEA113102D0404261EB410113F0004F0F
:100540004FEA03334CEA133302D0524263EB4303C6
:1005500094EA050F00F0A780A4F10104D5F1200E64
:100560000DDB02FA0EFC22FA05F2801841F10001BF
:1005700003FA0EF2801843FA05F359410EE0A5F193
:1005800020050EF1200E012A03FA0EFC28BF4CF0C4
:10059000020C43FA05F3C01851EBE37101F000457A
:1005A00007D54FF0000EDCF1000C7EEB00006EEB87
:1005B0000101B1F5801F1BD3B1F5001F0CD3490811
:1005C0005FEA30004FEA3C0C04F101044FEA445268
:1005D00012F5800F80F09A80BCF1004F08BF5FEAEF
:1005E000500C50F1000041EB045141EA050130BDCF
:1005F0005FEA4C0C404141EB0101013C28BFB1F5E1
:10060000801FE9D291F0000F04BF01460020B1FA2B
:1006100081F308BF2033A3F10B03B3F120020CDAFE
:100620000C3208DD02F1140CC2F10C0201FA0CF0DC
:1006300021FA02F10CE002F11402D8BFC2F1200C41
:1006400001FA02F120FA0CFCDCBF41EA0C019040F7
:10065000E41AA2BF01EB0451294330BD6FEA040440
:100660001F3C1CDA0C340EDC04F11404C4F120022B
:1006700020FA04F001FA02F340EA030021FA04F33D
:1006800045EA030130BDC4F10C04C4F1200220FA94
:1006900002F001FA04F340EA0300294630BD21FAD2
:1006A00004F0294630BD94F0000F83F4801306BF98
:1006B00081F480110134013D4EE77FEA645C18BF8C
:1006C0007FEA655C29D094EA050F08BF90EA020F23
:1006D00005D054EA000C04BF1946104630BD91EA1B
:1006E000030F1EBF0021002030BD5FEA545C05D11E
:1006F0004000494128BF41F0004130BD14F580045D
:100700003CBF01F5801130BD01F0004545F0FE41D0
:1007100041F470014FF0000030BD7FEA645C1ABF05
:10072000194610467FEA655C1CBF0B46024650EA3C
:10073000013406BF52EA033591EA030F41F4002168
:1007400030BD00BF90F0000F04BF0021704730B5EE
:100750004FF4806404F132044FF000054FF00001C3
:1007600050E700BF90F0000F04BF0021704730B584
:100770004FF4806404F1320410F0004548BF404259
:100780004FF000013EE700BF42004FEAE2014FEAAE
:1007900031014FEA02701FBF12F07F4393F07F4F89
:1007A00081F06051704732F07F4208BF704793F08C
:1007B0007F4F04BF41F40021704730B54FF460749F
:1007C00001F0004521F000411CE700BF50EA0102A2
:1007D00008BF704730B54FF000050AE050EA01024B
:1007E00008BF704730B511F0004502D5404261EBBB
:1007F00041014FF4806404F132045FEA915C3FF4FC
:10080000D8AE4FF003025FEADC0C18BF03325FEA98
:10081000DC0C18BF033202EBDC02C2F1200300FA49
:1008200003FC20FA02F001FA03FE40EA0E0021FA6E
:1008300002F11444BDE600BF70B54FF0FF0C4CF45C
:10084000E06C1CEA11541DBF1CEA135594EA0C0F0E
:1008500095EA0C0F00F0DEF82C4481EA030621EA49
:100860004C5123EA4C5350EA013518BF52EA033584
:1008700041F4801143F4801338D0A0FB02CE4FF036
:100880000005E1FB02E506F00042E0FB03E54FF066
:100890000006E1FB03569CF0000F18BF4EF0010E5E
:1008A000A4F1FF04B6F5007F64F5407404D25FEA5A
:1008B0004E0E6D4146EB060642EAC62141EA55510D
:1008C0004FEAC52040EA5E504FEACE2EB4F1FD0C4F
:1008D00088BFBCF5E06F1ED8BEF1004F08BF5FEACD
:1008E000500E50F1000041EB045170BD06F000467F
:1008F00046EA010140EA020081EA0301B4EB5C042C
:10090000C2BFD4EB0C0541EA045170BD41F4801123
:100910004FF0000E013C00F3AB8014F1360FDEBF48
:10092000002001F0004170BDC4F10004203C35DA24
:100930000C341BDC04F11404C4F1200500FA05F3A7
:1009400020FA04F001FA05F240EA020001F0004248
:1009500021F0004110EBD37021FA04F642EB0601BE
:100960005EEA430E08BF20EAD37070BDC4F10C04E8
:10097000C4F1200500FA04F320FA05F001FA04F2AC
:1009800040EA020001F0004110EBD37041F1000198
:100990005EEA430E08BF20EAD37070BDC4F12005A3
:1009A00000FA05F24EEA020E20FA04F301FA05F20B
:1009B00043EA020321FA04F001F0004121FA04F2B3
:1009C00020EA020000EBD3705EEA430E08BF20EA83
:1009D000D37070BD94F0000F0FD101F000464000BD
:1009E00041EB010111F4801F08BF013CF7D041EA3F
:1009F000060195F0000F18BF704703F00046520043
:100A000043EB030313F4801F08BF013DF7D043EA13
:100A10000603704794EA0C0F0CEA135518BF95EAC9
:100A20000C0F0CD050EA410618BF52EA4306D1D150
:100A300081EA030101F000414FF0000070BD50EA6F
:100A4000410606BF1046194652EA430619D094EAF9
:100A50000C0F02D150EA013613D195EA0C0F05D1E3
:100A600052EA03361CBF104619460AD181EA030137
:100A700001F0004141F0FE4141F470014FF00000EF
:100A800070BD41F0FE4141F4780170BD70B54FF08A
:100A9000FF0C4CF4E06C1CEA11541DBF1CEA13550A
:100AA00094EA0C0F95EA0C0F00F0A7F8A4EB0504EC
:100AB00081EA030E52EA03354FEA013100F08880E3
:100AC0004FEA03334FF0805545EA131343EA1263AC
:100AD0004FEA022245EA111545EA10654FEA002661
:100AE0000EF000419D4208BF964244F1FD0404F51A
:100AF000407402D25B084FEA3202B61A65EB030576
:100B00005B084FEA32024FF480104FF4002CB6EB32
:100B1000020E75EB030E22BFB61A754640EA0C00B2
:100B20005B084FEA3202B6EB020E75EB030E22BFF2
:100B3000B61A754640EA5C005B084FEA3202B6EB33
:100B4000020E75EB030E22BFB61A754640EA9C00F2
:100B50005B084FEA3202B6EB020E75EB030E22BFC2
:100B6000B61A754640EADC0055EA060E18D04FEA80
:100B7000051545EA16754FEA06164FEAC30343EA20
:100B800052734FEAC2025FEA1C1CC0D111F4801FED
:100B90000BD141EA00014FF000004FF0004CB6E7E6
:100BA00011F4801F04BF01430020B4F1FD0C88BF85
:100BB000BCF5E06F3FF6AFAEB5EB030C04BFB6EB90
:100BC000020C5FEA500C50F1000041EB045170BD83
:100BD0000EF0004E4EEA113114EB5C04C2BFD4EBB0
:100BE0000C0541EA045170BD41F480114FF0000E34
:100BF000013C90E645EA060E8DE60CEA135594EAB0
:100C00000C0F08BF95EA0C0F3FF43BAF94EA0C0FB2
:100C10000AD150EA01347FF434AF95EA0C0F7FF427
:100C200025AF104619462CE795EA0C0F06D152EA7B
:100C300003353FF4FDAE1046194622E750EA41065F
:100C400018BF52EA43067FF4C5AE50EA41047FF470
:100C50000DAF52EA43057FF4EBAE12E74FF0FF3CD5
:100C600006E000BF4FF0010C02E000BF4FF0010CA6
:100C70004DF804CD4FEA410C7FEA6C5C4FEA430C1F
:100C800018BF7FEA6C5C1BD001B050EA410C0CBF6E
:100C900052EA430C91EA030F02BF90EA020F0020D0
:100CA000704710F1000F91EA030F58BF994208BF37
:100CB00090422CBFD8176FEAE37040F001007047F4
:100CC0004FEA410C7FEA6C5C02D150EA013C07D14B
:100CD0004FEA430C7FEA6C5CD6D152EA033CD3D096
:100CE0005DF8040B704700BF8446104662468C4690
:100CF0001946634600E000BF01B5FFF7B7FF0028C3
:100D000048BF10F1000F01BD4DF808EDFFF7F4FFEB
:100D10000CBF012000205DF808FB00BF4DF808ED76
:100D2000FFF7EAFF34BF012000205DF808FB00BF99
:100D30004DF808EDFFF7E0FF94BF012000205DF8BB
:100D400008FB00BF4DF808EDFFF7CEFF94BF012070
:100D500000205DF808FB00BF4DF808EDFFF7C4FF69
:100D600034BF012000205DF808FB00BF4FEA410CB2
:100D70007FEA6C5C02D150EA013C0AD14FEA430C95
:100D80007FEA6C5C02D152EA033C02D14FF00000D2
:100D900070474FF0010070474FEA410212F5001210
:100DA00015D211D56FF47873B3EB625212D94FEAB2
:100DB000C12343F0004343EA505311F0004F23FA9C
:100DC00002F018BF404270474FF00000704750EAF1
:100DD000013005D111F0004008BF6FF000407047AE
:100DE0004FF00000704700BF4FEA4102B2F1E0430C
:100DF00024BFB3F5001CDCF1FE5C0DD901F0004C02
:100E00004FEAC0024CEA5070B2F1004F40EB830051
:100E100008BF20F00100704711F0804F21D113F17D
:100E20003872BCBF01F00040704741F480114FEAB6
:100E30005252C2F11802C2F1200C10FA0CF320FA3F
:100E400002F018BF40F001004FEAC1234FEAD3235C
:100E500003FA0CFC40EA0C0023FA02F34FEA4303C6
:100E6000CCE77FEA625307D150EA01331EBF4FF04F
:100E7000FE4040F44000704701F0004040F0FE406A
:100E800040F40000704700BF7BB972B90029BEBFB3
:100E900000204FF0004106E008BF00281CBF6FF0A3
:100EA00000414FF0FF3000F0BFB9ADF1080C6DE923
:100EB00004CE002909DB002B1ADB00F04DF8DDF829
:100EC00004E0DDE9022304B07047404261EB4101D8
:100ED000002B1BDB00F040F8DDF804E0DDE9022325
:100EE00004B0404261EB4101524263EB430370475F
:100EF000524263EB430300F02FF8DDF804E0DDE934
:100F0000022304B0404261EB41017047524263EB5F
:100F1000430300F021F8DDF804E0DDE9022304B02A
:100F2000524263EB4303704753B94AB9002908BFE3
:100F300000281CBF4FF0FF314FF0FF3000F074B9B4
:100F4000ADF1080C6DE904CE00F006F8DDF804E020
:100F5000DDE9022304B070472DE9F047089D0446FF
:100F60008E46002B4DD18A42944669D9B2FA82F25C
:100F700052B101FA02F3C2F1200120FA01F10CFA98
:100F800002FC41EA030E94404FEA1C48210CBEFBD0
:100F9000F8F61FFA8CF708FB16E341EA034306FB59
:100FA00007F199420AD91CEB030306F1FF3080F0E8
:100FB0001F81994240F21C81023E63445B1AA4B235
:100FC000B3FBF8F008FB103344EA034400FB07F7D7
:100FD000A7420AD91CEB040400F1FF3380F00A8118
:100FE000A74240F207816444023840EA0640E41B0D
:100FF00000261DB1D4400023C5E900433146BDE8B9
:10100000F0878B4209D9002D00F0EF800026C5E95A
:10101000000130463146BDE8F087B3FA83F6002E72
:101020004AD18B4202D3824200F2F980841A61EBEA
:10103000030301209E46002DE0D0C5E9004EDDE708
:1010400002B9FFDEB2FA82F2002A40F09280A1EBF0
:101050000C014FEA1C471FFA8CFE0126200CB1FB45
:10106000F7F307FB131140EA01410EFB03F088423E
:1010700008D91CEB010103F1FF3802D2884200F2CB
:10108000CB804346091AA4B2B1FBF7F007FB10115D
:1010900044EA01440EFB00FEA64508D91CEB0404FB
:1010A00000F1FF3102D2A64500F2BB800846A4EB56
:1010B0000E0440EA03409CE7C6F12007B34022FA41
:1010C00007FC4CEA030C20FA07F401FA06F31C4370
:1010D000F9404FEA1C4900FA06F3B1FBF9F8200C7D
:1010E0001FFA8CFE09FB181140EA014108FB0EF0C3
:1010F000884202FA06F20BD91CEB010108F1FF3A13
:1011000080F08880884240F28580A8F1020861441E
:10111000091AA4B2B1FBF9F009FB101144EA01412C
:1011200000FB0EFE8E4508D91CEB010100F1FF34D7
:101130006CD28E456AD90238614440EA0840A0FB6F
:101140000294A1EB0E01A142C846A64656D353D045
:101150005DB1B3EB080261EB0E0101FA07F722FA69
:1011600006F3F1401F43C5E9007100263146BDE892
:10117000F087C2F12003D8400CFA02FC21FA03F3F5
:10118000914001434FEA1C471FFA8CFEB3FBF7F076
:1011900007FB10360B0C43EA064300FB0EF69E429B
:1011A00004FA02F408D91CEB030300F1FF382FD234
:1011B0009E422DD9023863449B1B89B2B3FBF7F6DC
:1011C00007FB163341EA034106FB0EF38B4208D9B5
:1011D0001CEB010106F1FF3816D28B4214D9023EF6
:1011E0006144C91A46EA004638E72E46284605E714
:1011F0000646E3E61846F8E64B45A9D2B9EB0208E5
:1012000064EB0C0E0138A3E74646EAE7204694E774
:101210004046D1E7D0467BE7023B614432E73046A7
:1012200009E76444023842E7704700BF70B50D4ECD
:101230000D4D761BB61006D0002455F8043B013442
:101240009847A642F9D1094E094D761B16F032F89F
:10125000B61006D0002455F8043B01349847A64246
:10126000F9D170BD208A0108208A0108288A010866
:10127000208A0108830730B548D0541E002A3FD089
:10128000CAB2034601E0013C3AD303F8012B9D07A3
:10129000F9D1032C2DD9CDB245EA05250F2C45EA0D
:1012A000054536D9A4F1100222F00F0C03F1200EEF
:1012B000E6444FEA121C03F1100242E9045542E9E8
:1012C000025510327245F8D10CF1010214F00C0FE6
:1012D00003EB021204F00F0C13D0ACF1040323F063
:1012E00003030433134442F8045B9342FBD10CF034
:1012F00003042CB1CAB21C4403F8012B9C42FBD15D
:1013000030BD64461346002CF4D1F9E70346144679
:10131000BFE71A46A446E0E7024B13B1024800F0CB
:1013200005B870470000000039130008002301468B
:101330001A46184600F01EB838B5084B084D5B1B1E
:101340009C1007D0043B1D44013C55F804399847D4
:10135000002CF9D1BDE8384015F0B2BF2C8A010845
:10136000288A0108704700BF704700BF704700BF60
:10137000704700BF2DE9F047DFF880A00646DAF895
:10138000000098460F469146FFF7F0FF1A4B1B6886
:10139000D3F8484124B365681F2D26DC5EB96B1C69
:1013A0000235DAF80000636044F82570FFF7E0FFCB
:1013B0000020BDE8F08704EB85010123C1F8889087
:1013C000D4F88821AB401A43022EC4F88821C1F812
:1013D0000881E4D1D4F88C211343C4F88C31DEE7C2
:1013E00003F5A674C3F84841D5E7DAF80000FFF723
:1013F000BFFF4FF0FF30DCE7A0750108300400208C
:1014000080B483B000AF78607B6801221A607B688B
:10141000042283F828207B6802225A607B6801221C
:1014200083F829207B6814229A607B68022283F863
:101430002A207B683222DA607B68032283F82B2023
:1014400000BF0C37BD465DF8047B704780B582B0A5
:1014500002AF00F059F82048FFF7D2FF1E4B93F877
:1014600028301A460023019300921B4B4FF4007260
:101470001A491B480BF0E7FE174B93F829301A4620
:10148000002301930092174B4FF40072164917483E
:101490000BF0D9FE104B93F82A301A460023019323
:1014A0000092134B4FF40072124913480BF0CBFE1D
:1014B000094B93F82B301A460023019300920F4BEF
:1014C0004FF400720E490F480BF0BDFE0CF038F8D7
:1014D00000231846BD4680BD34040020D0720108A8
:1014E000E9CE000838040020E472010865300008E5
:1014F0003C040020F87201087D150008400400201B
:10150000147301082115000880B500AF00F0C0FB7E
:101510000BF062FC0BF076FC0BF080FD00BF80BD91
:1015200080B584B000AF78607B68FB600F4B93EDB3
:10153000007A0F4BD3ED006A0E4B93ED006A0E4B11
:10154000D3ED007AFDEEE77A0022002117EE900A33
:10155000B0EE461AF0EE660AB0EE470A01F06EFCF5
:10156000FB681B6818460BF0B7FFDFE71C2600205E
:101570002026002024260020E025002080B586B00B
:1015800000AF78607B687B61264B1B78002B1CD0FA
:10159000254B1B78AA2B18D1234B5B78AF2B14D18A
:1015A000214B3B613B6902333B613B691B78032B59
:1015B00006D0102B09D13B690133184600F03AF8E8
:1015C0003B690133184600F0B5FA164B00221A7039
:1015D000164B1B78002B1CD0154B1B78AA2B18D14F
:1015E000134B5B78AF2B14D1114BFB60FB680233BC
:1015F000FB60FB681B78032B06D0102B09D1FB681E
:101600000133184600F016F8FB680133184600F065
:1016100091FA064B00221A707B691B6818460BF082
:101620005BFFB1E7A125002064120020A025002067
:101630006416002080B59EB000AF7860002387F864
:1016400077307B683B673B6F01333B673B6F1B88A1
:101650001846FFF787F84FF00002BF4BFFF716FA66
:1016600002460B4610461946FFF7BEFB0346FB66D3
:101670003B6F02333B673B6F1B881846FFF772F8DE
:101680004FF00002B44BFFF701FA02460B4610463A
:101690001946FFF7A9FB0346BB663B6F02333B6766
:1016A0003B6F1B881846FFF75DF84FF00002AA4B0E
:1016B000FFF7ECF902460B4610461946FFF794FB7C
:1016C00003467B663B6F02333B673B6F1B881846C4
:1016D000FFF748F84FF000029F4BFFF7D7F902469B
:1016E0000B4610461946FFF77FFB03463B663B6FF0
:1016F00002333B673B6F1B881846FFF733F84FF008
:101700000002954BFFF7C2F902460B4610461946F8
:10171000FFF76AFB0346FB653B6F02333B673B6F9A
:101720001B881846FFF71EF84FF000028A4BFFF7A0
:10173000ADF902460B4610461946FFF755FB034626
:10174000BB653B6F02333B673B6F1B881846FFF757
:1017500009F84FF00002804BFFF798F902460B465C
:1017600010461946FFF740FB03467B653B6F02338B
:101770003B673B6F1B881846FEF7F4FF4FF00002F3
:10178000754BFFF783F902460B4610461946FFF7E3
:101790002BFB03463B653B6F02333B673B6F1B886C
:1017A0001846FEF7DFFF4FF000026B4BFFF76EF9B4
:1017B00002460B4610461946FFF716FB0346FB642C
:1017C0003B6F02333B673B6F1B881846FEF7CAFF2F
:1017D0004FF00002604BFFF759F902460B461046E6
:1017E0001946FFF701FB0346BB643B6F02333B67BF
:1017F0003B6F1B881846FEF7B5FF4FF00002564BB3
:10180000FFF744F902460B4610461946FFF7ECFA7B
:1018100003467B643B6F02333B673B6F1B88184674
:10182000FEF7A0FF4FF000024B4BFFF72FF90246E7
:101830000B4610461946FFF7D7FA03463B643B6F49
:1018400002333B673B6F1B881846FEF78BFF4FF058
:101850000002414BFFF71AF902460B4610461946A3
:10186000FFF7C2FA0346FB633B6F02333B673B6FF4
:101870001B881846FEF776FF4FF00002364BFFF745
:1018800005F902460B4610461946FFF7ADFA034626
:10189000BB633B6F02333B673B6F1B881846FEF709
:1018A00061FF4FF000022C4BFFF7F0F802460B46A9
:1018B00010461946FFF798FA03467B633B6F0233E5
:1018C0003B673B6F1B881846FEF74CFF4FF000024A
:1018D000214BFFF7DBF802460B4610461946FFF78F
:1018E00083FA03463B633B6F02333B673B6F1B88C6
:1018F0001846FEF737FF4FF00002174BFFF7C6F808
:1019000002460B4610461946FFF76EFA0346FB6285
:101910003B6F02333B673B6F1B881846FEF722FF85
:101920004FF000020C4BFFF7B1F802460B46104691
:101930001946FFF759FA0346BB623B6F02333B6718
:101940003B6F1B881846FEF70DFF4FF00002024B5D
:10195000FFF79CF802E000BF00408F4002460B46B4
:1019600010461946FFF740FA03467B623B6F02338D
:101970003B673B6F1B881846FEF7F4FE4FF00002F2
:10198000674BFFF783F802460B4610461946FFF7F0
:101990002BFA03463B623B6F02333B673B6F1B886E
:1019A0001846FEF7DFFE4FF000025D4BFFF76EF8C2
:1019B00002460B4610461946FFF716FA0346FB612E
:1019C0003B6F02333B673B6F1B881846FEF7CAFE2E
:1019D0004FF00002524BFFF759F802460B461046F3
:1019E0001946FFF701FA0346BB613B6F02333B67C1
:1019F0003B6F1B881846FEF7B5FE4FF00002484BC0
:101A0000FFF744F802460B4610461946FFF7ECF97B
:101A100003467B613B6F02333B673B6F1B88184675
:101A2000FEF7A0FE4FF000023D4BFFF72FF80246F5
:101A30000B4610461946FFF7D7F903463B613B6F4B
:101A400002333B673B6F1B78FB73012387F87630CB
:101A50000EE097F876307A6813441A7897F8773062
:101A6000134487F8773097F87630013387F876306B
:101A70003A6F7B68D21A97F876309A42E9DCFA7BA3
:101A800097F877309A4247D1264AFB6E9360254AF1
:101A9000BB6ED360234A7B6E1361234A3B6E936017
:101AA000214AFB6DD360204ABB6D13611F4A7B6DD9
:101AB00093601E4A3B6DD3601C4AFB6C13611C4A49
:101AC000BB6C93601A4A7B6CD360194A3B6C136100
:101AD000144AFB6B9361134ABB6BD361114A7B6B56
:101AE0001362114A3B6B93610F4AFB6AD3610E4A42
:101AF000BB6A13620D4A7B6A93610C4A3B6AD361ED
:101B00000A4AFB6913620A4ABB699361084A7B6906
:101B1000D361074A3B69136200BF7837BD4680BD79
:101B200000408F406C040020B80400200405002011
:101B30005005002080B58CB000AF7860002387F896
:101B40002F307B68BB62BB6A0133BB62BB6A1B88F8
:101B5000FB84BB6A0233BB62BB6AB3F90030184630
:101B6000FEF700FE4FF00002474BFEF78FFF0246E4
:101B70000B4610461946FFF737F903463B62BB6A2E
:101B80000233BB62BB6AB3F900301846FEF7EAFDC8
:101B90004FF000023C4BFEF779FF02460B46104621
:101BA0001946FFF721F90346FB61BB6A0233BB62AA
:101BB000BB6AB3F900301846FEF7D4FD4FF00002BF
:101BC000314BFEF763FF02460B4610461946FFF7FE
:101BD0000BF90346BB61BB6A0233BB62BB6A1B885D
:101BE000FB82BB6A0233BB62BB6A1B88BB82BB6AD7
:101BF0000233BB62BB6A1B887B82BB6A0233BB6257
:101C0000BB6A1B883B82BB6A0233BB62BB6A1B8810
:101C1000FB81BB6A0233BB62BB6A1B88BB81BB6AA8
:101C20000233BB62BB6A1B78FB72012387F82E303C
:101C30000EE097F82E307A6813441A7897F82F3010
:101C4000134487F82F3097F82E30013387F82E3061
:101C5000BA6A7B68D21A97F82E309A42E9DCFA7A8F
:101C600097F82F309A420BD1084AFB8C1380074A11
:101C70003B6AD360054AFB695360044ABB699360C1
:101C800000BF3037BD4680BD00005940641A0020B7
:101C900080B500AF01F056FE00F060F800F082FA67
:101CA00000F042FA00F0C2F800F0EEF800F084F91B
:101CB00000F0B4F900F0DCF900F004FA4FF48062AF
:101CC0000749084804F0A1F94FF480620649074823
:101CD00004F09BF900F00CF800F0F6FB00BF80BDAB
:101CE000A01D0020BC1A0020A0210020881B00207D
:101CF00080B500AF174B184A1A60164B4FF482722A
:101D00005A60144B00229A60124B0022DA60114B89
:101D100000221A610F4B00225A610E4B4FF40072E1
:101D20009A610C4B1822DA610A4B00221A62094BA5
:101D300000225A62074B00229A62064B0A22DA629C
:101D4000044807F051FC0346002B01D000F0BAFA1A
:101D500000BF80BD401D00200038004080B594B019
:101D600000AF07F12003302200211846FFF782FA66
:101D700007F10C0300221A605A609A60DA601A6157
:101D80000023BB60274B1B6C264A43F0805313642F
:101D9000244B1B6C03F08053BB60BB6800237B604B
:101DA000214B1B68204A43F4804313601E4B1B6881
:101DB00003F480437B607B6801233B624FF48033F4
:101DC0007B620223BB634FF48003FB6305233B6408
:101DD00096237B640423BB640423FB6407F1200384
:101DE000184601F057FF0346002B01D000F06AFAB5
:101DF0000F23FB6002233B6100237B614FF4805380
:101E0000BB610023FB6107F10C030121184602F0BE
:101E1000B9F90346002B01D000F054FA00BF503747
:101E2000BD4680BD003802400070004080B500AF64
:101E3000124B134A1A60114B124A5A600F4B002280
:101E40009A600E4B0022DA600C4B4FF480421A610C
:101E50000A4B00225A61094B00229A61074B00226B
:101E6000DA61064B00221A62044805F061F8034665
:101E7000002B01D000F026FA00BF80BDEC1C002032
:101E800000540040801A060080B58EB000AF07F104
:101E9000280300221A605A609A60DA6007F1200372
:101EA00000221A605A603B1D00221A605A609A6034
:101EB000DA601A615A619A613D4B3E4A1A603C4BA6
:101EC0004F225A603A4B00229A60394B40F2CF724F
:101ED000DA60374B00221A61354B00229A61344890
:101EE00003F035F90346002B01D000F0EBF94FF475
:101EF0008053BB6207F1280319462D4803F056FBB7
:101F00000346002B01D000F0DDF9294803F06EF9FB
:101F10000346002B01D000F0D5F900233B620023DB
:101F20007B6207F120031946214803F013FF0346A3
:101F3000002B01D000F0C6F960237B600023BB605A
:101F40000023FB6000237B613B1D002219461848DB
:101F500003F06EFA0346002B01D000F0B3F93B1DED
:101F600004221946124803F063FA0346002B01D0FD
:101F700000F0A8F93B1D082219460D4803F058FA55
:101F80000346002B01D000F09DF93B1D0C221946A1
:101F9000074803F04DFA0346002B01D000F092F9F8
:101FA000034800F06BFC00BF3837BD4680BD00BF62
:101FB000741A00200008004080B500AF154B164A87
:101FC0001A60144B4FF4E1325A60124B00229A60AF
:101FD000104B0022DA600F4B00221A610D4B0C22CD
:101FE0005A610C4B00229A610A4B0022DA610948BF
:101FF00003F02CFF0346002B01D000F063F9054BE2
:102000001B68DA68034B1B6842F01002DA6000BFFD
:1020100080BD00BFBC1A00200010014080B500AF99
:10202000114B124A1A60104B4FF4E1325A600E4BBA
:1020300000229A600C4B0022DA600B4B00221A61DE
:10204000094B0C225A61084B00229A61064B002270
:10205000DA61054803F0FAFE0346002B01D000F0D8
:1020600031F900BF80BD00BF001B002000440040CC
:1020700080B500AF114B124A1A60104B4FF4E13299
:102080005A600E4B00229A600C4B0022DA600B4B18
:1020900000221A61094B0C225A61084B00229A61F6
:1020A000064B0022DA61054803F0D0FE0346002B00
:1020B00001D000F007F900BF80BD00BF441B002025
:1020C0000048004080B500AF154B164A1A60144B0B
:1020D0004FF4E1325A60124B00229A60104B0022FA
:1020E000DA600F4B00221A610D4B0C225A610C4B27
:1020F00000229A610A4B0022DA61094803F0A6FE29
:102100000346002B01D000F0DDF8054B1B68DA68B0
:10211000034B1B6842F01002DA6000BF80BD00BFB5
:10212000881B0020004C004080B582B000AF002327
:102130007B601B4B1B6B1A4A43F400131363184B51
:102140001B6B03F400137B607B6800233B60144B24
:102150001B6B134A43F480031363114B1B6B03F493
:1021600080033B603B68002200210D2001F05BFDF5
:102170000D2001F074FD00220021102001F053FD1C
:10218000102001F06CFD002200213A2001F04BFDEF
:102190003A2001F064FD00BF0837BD4680BD00BF96
:1021A0000038024080B58AB000AF07F11403002266
:1021B0001A605A609A60DA601A6100233B613D4BF5
:1021C0001B6B3C4A43F0010313633A4B1B6B03F058
:1021D00001033B613B690023FB60364B1B6B354AB7
:1021E00043F002031363334B1B6B03F00203FB60EA
:1021F000FB680023BB602F4B1B6B2E4A43F004038C
:1022000013632C4B1B6B03F00403BB60BB68002300
:102210007B60284B1B6B274A43F008031363254B55
:102220001B6B03F008037B607B6800233B60214B42
:102230001B6B204A43F0800313631E4B1B6B03F0A0
:1022400080033B603B68B0237B610123BB610023BB
:10225000FB6100233B6207F114031946164802F0A4
:10226000C1FD0122B021144802F058FF01223021A3
:10227000124802F053FF01237B610023BB6101235D
:10228000FB6107F1140319460D4802F0ABFD302342
:102290007B610123BB610023FB6100233B6207F1EB
:1022A00014031946054802F09DFD00BF2837BD46BE
:1022B00080BD00BF00380240000C02400000024018
:1022C0000008024080B400AF72B600BFFEE7000015
:1022D00080B582B000AF7860391D4FF6FF730122E0
:1022E000034803F000FE7B6818460837BD4680BDF2
:1022F000001B002080B582B000AF254B1B68254A2B
:10230000934237D1224B1B681B6803F01003102B3C
:1023100030D11F4803F0A9FE00237B601C4B1B68D3
:102320001B687B601A4B1B685B687B607B681A4B81
:102330001B685B68C3F580631A46184B1A60184B1C
:1023400001221A704FF480621649114803F05DFEB5
:10235000154B0422154918460EF0CCFD0346002B00
:1023600008D1134B642219461248FDF749FF124B5E
:1023700001221A70114B1B78002B02D109480EF074
:102380006DFD034803F0CCFE00BF0837BD4680BD9D
:10239000BC1A002000100140CC1B0020981D00201A
:1023A0009C1D0020A01D0020A21D002030730108EC
:1023B000AC1D002064160020A0250020422600202D
:1023C00080B582B000AF1F4B1B681F4A934235D1C6
:1023D0001C4B1B681B6803F01003102B2ED11948EF
:1023E00003F043FE00237B60164B1B681B687B6079
:1023F000144B1B685B687B607B68144B1B685B68D5
:10240000C3F580631A46124B1A60124B01221A70F0
:102410004FF4806210490B4803F0F7FD0E4B1B7818
:10242000AA2B0BD10C4B5B78AF2B07D164220A4946
:102430000A48FDF7E5FE0A4B01221A7000BF083773
:10244000BD4680BD881B0020004C00408C1C002035
:10245000981D00209C1D0020A02100206412002057
:10246000A125002080B500AF024802F043FA00BF6A
:1024700080BD00BFCC1B002080B500AF024803F038
:102480004FFE00BF80BD00BF001B002080B500AF25
:10249000024802F02FFA00BF80BD00BF2C1C0020B4
:1024A00080B500AF024802F025FA00BF80BD00BF32
:1024B0008C1C002080B500AF024805F09DF900BFDC
:1024C00080BD00BFEC1C002080B500AF0021084893
:1024D00002F0E6FE0421064802F0E2FE082104486C
:1024E00002F0DEFE0C21024802F0DAFE00BF80BDE1
:1024F000741A002080B586B000AF7860144A154B7E
:10250000D31A7B617B693B61134B1B68002B02D1A3
:10251000114B124A1A60104B1A687B6813443A69CF
:102520009A4207D20EF014FC03460C221A604FF0B8
:10253000FF3309E0084B1B68FB60074B1A687B6898
:102540001344054A1360FB6818461837BD4680BD22
:102550000000022000040000A8250020F054012003
:1025600080B400AF00BFBD465DF8047B704780B407
:1025700000AF00BFBD465DF8047B704780B400AF7C
:1025800000BFBD465DF8047B704780B483B000AFE8
:102590007860396000BF0C37BD465DF8047B70473A
:1025A00080B485B000AFF860B9607A60FB68074A14
:1025B0001A60BB68064A1A607B6882221A6000BFF4
:1025C0001437BD465DF8047B704700BFD80F00206C
:1025D0003010002080B485B000AFF860B9607A6038
:1025E000FB68074A1A60BB68064A1A607B684FF4AA
:1025F00082721A6000BF1437BD465DF8047B7047D5
:10260000700B0020C80B002080B58AB000AF786046
:1026100007F1140300221A605A609A60DA601A61A6
:102620007B681B681C4A934231D100233B611B4BE2
:102630001B6B1A4A43F002031363184B1B6B03F026
:1026400002033B613B69C0237B611223BB6103230F
:102650003B6204237B6207F114031946104802F021
:10266000C1FB0023FB600D4B1B6C0C4A43F40013B1
:1026700013640A4B1B6C03F40013FB60FB6800221D
:1026800000211F2001F0CFFA1F2001F0E8FA00BF5F
:102690002837BD4680BD00BF0054004000380240CE
:1026A0000004024080B58AB000AF786007F11403DF
:1026B00000221A605A609A60DA601A617B681B68AF
:1026C0002C4A934252D100233B612B4B1B6C2A4A6C
:1026D00043F480431364284B1B6C03F480433B6139
:1026E0003B690023FB60244B1B6B234A43F004032C
:1026F0001363214B1B6B03F00403FB60FB68002397
:10270000BB601D4B1B6B1C4A43F0020313631A4B47
:102710001B6B03F00203BB60BB680C237B610223CD
:10272000BB610023FB6103233B6205237B6207F14E
:1027300014031946114802F055FB4FF480637B6186
:102740000223BB610023FB6103233B6205237B6201
:1027500007F1140319460A4802F044FB0022002145
:10276000242001F060FA242001F079FA00BF283714
:10277000BD4680BD003800400038024000080240DD
:102780000004024080B483B000AF00237B60104B94
:102790005B6C0F4A43F4804353640D4B5B6C03F452
:1027A00080437B607B6800233B60094B1B6C084ABD
:1027B00043F080531364064B1B6C03F080533B6063
:1027C0003B6800BF0C37BD465DF8047B704700BF17
:1027D0000038024080B586B000AF78607B681B6827
:1027E000224A93420ED100237B61214B1B6C204A6D
:1027F00043F0020313641E4B1B6C03F002037B6166
:102800007B692EE07B681B681A4A93420ED1002335
:102810003B61174B1B6C164A43F004031364144BC3
:102820001B6C03F004033B613B691AE07B681B6887
:10283000114A934215D10023FB600D4B1B6C0C4ACF
:1028400043F0080313640A4B1B6C03F00803FB609E
:10285000FB6800220021322001F0E5F9322001F06E
:10286000FEF900BF1837BD4680BD00BF0004004020
:102870000038024000080040000C004080B58AB0DB
:1028800000AF786007F1140300221A605A609A6062
:10289000DA601A617B681B68334A93423CD100239B
:1028A0003B61324B1B6B314A43F0010313632F4BE7
:1028B0001B6B03F001033B613B690023FB602B4B67
:1028C0001B6B2A4A43F002031363284B1B6B03F074
:1028D0000203FB60FB68C0237B610223BB61002312
:1028E000FB6100233B6202237B6207F1140319465C
:1028F0001F4802F077FA03237B610223BB610023A8
:10290000FB6100233B6202237B6207F1140319463B
:10291000184802F067FA23E07B681B68164A934266
:102920001ED10023BB60114B1B6B104A43F0080300
:1029300013630E4B1B6B03F00803BB60BB684FF4C3
:1029400070437B610223BB610023FB6100233B6278
:1029500002237B6207F114031946084802F042FA89
:1029600000BF2837BD4680BD00040040003802404B
:10297000000002400004024000080040000C024039
:1029800080B590B000AF786007F12C0300221A6088
:102990005A609A60DA601A617B681B68904A9342B9
:1029A00063D10023BB628F4B5B6C8E4A43F01003F4
:1029B00053648C4B5B6C03F01003BB62BB6A002357
:1029C0007B62884B1B6B874A43F001031363854B83
:1029D0001B6B03F001037B627B6A4FF4C063FB62F5
:1029E00002233B6300237B630323BB630723FB6357
:1029F00007F12C0319467C4802F0F4F97B4B7C4A22
:102A00001A607A4B4FF000625A60784B00229A604D
:102A1000764B0022DA60754B4FF480621A61734B7B
:102A200000225A61714B00229A61704B0022DA61D8
:102A30006E4B00221A626D4B00225A626B4801F005
:102A4000C1FD0346002B01D0FFF73CFC7B68674AC1
:102A50009A63664A7B68936300220021252001F077
:102A6000E2F8252001F0FBF837E17B681B68614A3A
:102A7000934262D100233B625A4B1B6C594A43F488
:102A800000331364574B1B6C03F400333B623B6A07
:102A90000023FB61534B1B6B524A43F0010313634A
:102AA000504B1B6B03F00103FB61FB690C23FB62C2
:102AB00002233B6300237B630323BB630723FB6386
:102AC00007F12C031946484802F08CF94A4B4B4A4F
:102AD0001A60494B4FF000625A60474B00229A60DF
:102AE000454B0022DA60444B4FF480621A61424B3E
:102AF00000225A61404B00229A613F4B0022DA616A
:102B00003D4B00221A623C4B00225A623A4801F0C7
:102B100059FD0346002B01D0FFF7D4FB7B68364AF2
:102B20009A63354A7B68936300220021262001F0D6
:102B30007AF8262001F093F8CFE07B681B68304AD2
:102B4000934263D10023BB61264B1B6C254A43F49F
:102B500080231364234B1B6C03F48023BB61BB698C
:102B600000237B611F4B1B6B1E4A43F00203136360
:102B70001C4B1B6B03F002037B617B6900233B61F1
:102B8000184B1B6B174A43F008031363154B1B6B61
:102B900003F008033B613B694FF40063FB620223CF
:102BA0003B6300237B630323BB630723FB6307F1C2
:102BB0002C031946134802F015F94FF48073FB6299
:102BC00002233B6300237B630323BB630723FB6375
:102BD00007F12C0319460C4802F004F97DE000BF10
:102BE000001001400038024000000240CC1B0020D1
:102BF00040640240004400402C1C002088600240D9
:102C00000048004000040240000C02407B681B6842
:102C1000344A934261D10023FB60334B1B6C324A30
:102C200043F400231364304B1B6C03F40023FB605C
:102C3000FB680023BB602C4B1B6B2B4A43F001034A
:102C40001363294B1B6B03F00103BB60BB680323B9
:102C5000FB6202233B6301237B630323BB630823E3
:102C6000FB6307F12C031946204802F0BBF8204B08
:102C7000204A1A601E4B4FF000625A601C4B002223
:102C80009A601B4B0022DA60194B4FF480621A6184
:102C9000174B00225A61164B00229A61144B0022F6
:102CA000DA61134B00221A62114B00225A6210485B
:102CB00001F088FC0346002B01D0FFF703FB7B6883
:102CC0000B4A9A630A4A7B689363002200213420EE
:102CD00000F0A9FF342000F0C2FF00BF4037BD461E
:102CE00080BD00BF004C00400038024000000240A0
:102CF0008C1C00204060024080B400AF01231846C5
:102D0000BD465DF8047B704780B582B000AF786047
:102D100039600EF01DF8034616221A604FF0FF339B
:102D200018460837BD4680BD80B582B000AF7860D8
:102D30004FF0FF317868FFF7E7FFFEE780B586B018
:102D400000AFF860B9607A6000237B610AE0AFF3FE
:102D500000800146BB685A1CBA60CAB21A707B690F
:102D600001337B617A697B689A42F0DB7B681846A5
:102D70001837BD4680BD80B586B000AFF860B96039
:102D80007A6000237B6109E0BB685A1CBA601B783B
:102D90001846FFF79DFA7B6901337B617A697B688E
:102DA0009A42F1DB7B6818461837BD4680BD80B477
:102DB00083B000AF78604FF0FF3318460C37BD4644
:102DC0005DF8047B704780B483B000AF78603960F1
:102DD0003B684FF400525A60002318460C37BD463A
:102DE0005DF8047B704780B483B000AF7860012346
:102DF00018460C37BD465DF8047B704780B485B03B
:102E000000AFF860B9607A60002318461437BD46F9
:102E10005DF8047B7047000080B400AF064BD3F828
:102E20008830054A43F47003C2F8883000BFBD46BD
:102E30005DF8047B704700BF00ED00E080B58AB00C
:102E400000AF87ED050AC7ED040A87ED031AB860E5
:102E50000B46FB711346BB71002387F82530BB6816
:102E6000FB6197F825305A1C87F825201A467B4BC2
:102E7000AA21995497F825305A1C87F825201A461C
:102E8000764BAA21995497F825305A1C87F82520AB
:102E90001A46724B0121995497F825305A1C87F82D
:102EA00025201A466D4B00219954D7ED057A9FEDE8
:102EB0006C7A67EE877AFDEEE77A17EE903A1BB2EE
:102EC0007B8407F12203013397F82520511C87F8F2
:102ED00025101978614B995407F1220297F8253093
:102EE000591C87F82510194612785C4B5A54D7EDB7
:102EF000047A9FED5B7A67EE877AFDEEE77A17EE4C
:102F0000903A1BB27B8407F12203013397F8252006
:102F1000511C87F825101978504B995407F122025B
:102F200097F82530591C87F82510194612784B4B15
:102F30005A54D7ED037A9FED4A7A67EE877AFDEE11
:102F4000E77A17EE903A1BB27B8407F12203013334
:102F500097F82520511C87F8251019783F4B995474
:102F600007F1220297F82530591C87F825101946D9
:102F700012783A4B5A5407F11C03033397F8252073
:102F8000511C87F825101978344B995407F11C030C
:102F9000023397F82520511C87F8251019782F4BFC
:102FA000995407F11C03013397F82520511C87F829
:102FB00025101978294B995407F11C0297F82530F0
:102FC000591C87F8251019461278244B5A5497F843
:102FD00025305A1C87F825201946204AFB7953547E
:102FE00097F825305A1C87F8252019461B4ABB79CB
:102FF000535497F82530043BDAB2184BDA700023AB
:1030000087F82730002387F826300DE097F8263020
:10301000124AD25C97F82730134487F8273097F884
:103020002630013387F8263097F8262097F8253088
:103030009A42EBD397F825305A1C87F82520194679
:10304000064A97F82730535497F825301946034815
:103050000AF056F800BF2837BD4680BDAC250020D9
:103060000000C84280B586B000AF78607B687B61A5
:10307000654BD3ED017A644B93ED027A624BD3ED4D
:10308000036ADFED621A5020B0EE661AF0EE470ACE
:10309000B0EE670A00F0CCF807EE900AF8EEE77A97
:1030A0009FED5B1ADFED5B0AB0EE670A00F020FCD3
:1030B000F0EE407AFDEEE77A17EE903A3B61524B24
:1030C000D3ED017A504B93ED027A4F4BD3ED036A67
:1030D000DFED4E1A5220B0EE661AF0EE470AB0EE5F
:1030E000670A00F0A5F807EE900AF8EEE77A9FED80
:1030F000481ADFED480AB0EE670A00F0F9FBF0EE7F
:10310000407AFDEEE77A17EE903AFB603E4BD3ED46
:10311000017A3D4B93ED027A3B4BD3ED036ADFED31
:103120003B1A5920B0EE661AF0EE470AB0EE670A75
:1031300000F07EF807EE900AF8EEE77A9FED341A79
:10314000DFED340AB0EE670A00F0D2FBF0EE407A11
:10315000FDEEE77A17EE903ABB602B4BB3F90030E7
:103160001A462D4B1A602D4BD3ED007AF0EEE77A1C
:103170009FED2B7AF4EEC77AF1EE10FA0BDC294BB7
:10318000D3ED007AF0EEE77A9FED257AF4EEC77A78
:10319000F1EE10FA03DD204B4FF448721A601E4B1B
:1031A0001B6840F22A32934218DD1B4B1A683B69B8
:1031B000D21A1D4B5A63184B1A683B691A441A4BB2
:1031C0009A63154B1A683B691A44174BDA63124B22
:1031D0001A683B69D21A144B1A640FE00E4B1A6836
:1031E000114B5A630C4B1A680F4B9A630A4B1A68BF
:1031F0000D4BDA63084B1A680B4B1A647B691B682A
:1032000018460AF069F933E7641A0020000000004C
:10321000000048C300004843A425002020260020C9
:10322000000048421C26002000080040000000006A
:10323000B0B588B000AF87ED050AC7ED040A87ED89
:10324000031A0346C7ED011AFB72FB7A502B40F0BC
:10325000F780794B9B6A93ED007AD7ED047A77EE8D
:10326000677A754BC3ED007A734BD3ED007AF0EEBD
:10327000E77A17EE900AFDF787FA6BA3D3E90023EC
:10328000FDF76AFD0346002B00F0C6806B4BB3F9D7
:10329000023007EE903AF8EEE77A17EE900AFDF763
:1032A00073FA63A3D3E90023FDF7C6FA02460B467F
:1032B00010461946FDF798FD0346BB615E4B1B683F
:1032C0005D4AD3625C4B93ED0C7A5B4BD3ED007A95
:1032D00077EE277A584BC3ED0C7A574BD3ED0C7A27
:1032E000554B93ED0F7A544BD3ED106AB0EE661A3E
:1032F000F0EE470AB0EE670A00F0FAFAF0EE407A14
:103300004D4BC3ED0C7A4C4ABB6953634A4B9B6AE5
:103310001B68494A5362484B93ED027A464BD3ED02
:103320000B7A27EE277A444BD3ED036A424BD3ED59
:103330000C7A66EEA77A37EE277A3F4BD3ED046A14
:103340003D4BD3ED0D7A66EEA77A77EE277A3A4BAE
:10335000C3ED117A384B93ED117A384BB3F9023043
:1033600007EE903AF8EEE77A77EE277A324BC3ED24
:103370000B7A314B93ED0E7A2F4BD3ED0B7A77EE20
:10338000277A2D4BC3ED0E7A2B4BD3ED0E7A2A4BB9
:1033900093ED0F7A284BD3ED106AB0EE661AF0EE7B
:1033A000470AB0EE670A00F0A3FAF0EE407A224B2B
:1033B000C3ED0E7A204BD3ED057A97ED067A77EEC2
:1033C000677A1D4BC3ED0D7A1B4B93ED067A1A4BB2
:1033D000D3ED0B7A27EE277A174BD3ED076A164BFE
:1033E000D3ED0E7A66EEA77A37EE277A124BD3ED3D
:1033F000086A114BD3ED0D7A66EEA77A77EE277A3D
:103400000D4BC3ED117A0C4ABB6953610A4BD3EDE6
:10341000117AFDEEE77A4AE2074BD3ED127AFDEE20
:10342000E77A44E2AFF300807B14AE47E17A843F51
:10343000C79DD2C1FA3F9F3FB80400200826002054
:10344000FB7A522B40F0E980C34B9B6A93ED007AE4
:10345000D7ED057A77EE677ABF4BC3ED007ABE4BA6
:10346000D3ED007AF0EEE77A17EE900AFDF78CF9CB
:10347000B5A3D3E90023FDF76FFC0346002B00F052
:10348000C680B64BB3F9003007EE903AF8EEE77A13
:1034900017EE900AFDF778F9ADA3D3E90023FDF705
:1034A000CBF902460B4610461946FDF79DFC034634
:1034B000BB61A94B1B68A84AD362A74B93ED0C7A5A
:1034C000A54BD3ED007A77EE277AA34BC3ED0C7AA8
:1034D000A14BD3ED0C7AA04B93ED0F7A9E4BD3ED1D
:1034E000106AB0EE661AF0EE470AB0EE670A00F016
:1034F000FFF9F0EE407A984BC3ED0C7A964ABB691F
:103500005363954B9B6A1B68934A5362924B93EDAE
:10351000027A914BD3ED0B7A27EE277A8E4BD3EDBF
:10352000036A8D4BD3ED0C7A66EEA77A37EE277AD5
:10353000894BD3ED046A884BD3ED0D7A66EEA77AFA
:1035400077EE277A844BC3ED117A834B93ED117A92
:10355000824BB3F9003007EE903AF8EEE77A77EE57
:10356000277A7D4BC3ED0B7A7B4B93ED0E7A7A4B2A
:10357000D3ED0B7A77EE277A774BC3ED0E7A764B45
:10358000D3ED0E7A744B93ED0F7A734BD3ED106A33
:10359000B0EE661AF0EE470AB0EE670A00F0A8F93E
:1035A000F0EE407A6C4BC3ED0E7A6B4BD3ED057A9F
:1035B00097ED067A77EE677A674BC3ED0D7A664B27
:1035C00093ED067A644BD3ED0B7A27EE277A624BA4
:1035D000D3ED076A604BD3ED0E7A66EEA77A37EE2D
:1035E000277A5D4BD3ED086A5B4BD3ED0D7A66EE1F
:1035F000A77A77EE277A584BC3ED117A564ABB6902
:103600005361554BD3ED117AFDEEE77A4FE1524B02
:10361000D3ED127AFDEEE77A49E1FB7A592B40F0BF
:10362000A1804F4B9B6A93ED007AD7ED047A77EE39
:10363000677A4B4BC3ED007A494BD3ED007AF0EE3D
:10364000E77A17EE900AFDF79FF83FA3D3E900232E
:10365000FDF782FB0346002B6FD0414B1B68404AAD
:10366000D3623F4B93ED0C7A3D4BD3ED007A77EE6E
:10367000277A3B4BC3ED0C7A394BD3ED0C7A384BA0
:1036800093ED0F7A344BD3ED106AB0EE661AF0EE7C
:10369000470AB0EE670A00F02BF9F0EE407A304BA3
:1036A000C3ED0C7A2D4BB3F9043007EE903AF8EEE7
:1036B000E77A17EE900AFDF767F825A3D3E9002310
:1036C000FDF7BAF802460B4610461946FDF78CFB8B
:1036D0000346234A5363224B93ED027A204BD3EDEA
:1036E0000B7A27EE277A1E4BD3ED036A1C4BD3EDE2
:1036F0000C7A66EEA77A37EE277A194BD3ED046A77
:10370000174BD3ED0D7A66EEA77A77EE277A144B36
:10371000C3ED117A124B9B6A1B68114A5362104B1E
:103720001B680F4A53600E4B5B6C0D4A93640C4B45
:10373000D3ED117AFDEEE77AB9E0094BD3ED127AB9
:10374000FDEEE77AB3E000BF7B14AE47E17A843F39
:10375000C79DD2C1FA3F9F3F6C040020082600207D
:1037600004050020FB7A482B40F0A080584BFB61F9
:10377000584B9B6A93ED007A574BD3ED007A37EEA6
:10378000677AD7ED077AC7EE276A9FED541ADFED07
:10379000540AB0EE660A00F0ABF8F0EE407A514BF6
:1037A000C3ED007A4F4B1B681846FCF7EDFF44A3AE
:1037B000D3E90023FDF740F802460B4614461D46A8
:1037C000494B1B681846FCF7DFFF3FA3D3E90023F2
:1037D000FDF732F802460B4620462946FCF776FEF6
:1037E00002460B4610461946FDF7FEFA03463D4ACF
:1037F00013603C4B1B683C4A1360364B9B6A1B684A
:10380000354A1360334B93ED027A324B9B6AD3ED0A
:10381000007AD7ED016A76EEE77A67EE277A2D4BCC
:10382000C3ED117A2B4B93ED117A2E4BD3ED007A29
:1038300077EE677A274BC3ED0B7A264B93ED0C7A24
:10384000244BD3ED0B7A77EE277A224BC3ED0C7A1B
:10385000204B93ED0B7A254BD3ED007A77EE677A08
:103860001C4BC3ED0D7A1B4B93ED067A194BD3ED30
:103870000B7A27EE277A174BD3ED076A154BD3ED5A
:103880000C7A66EEA77A37EE277A124BD3ED086AE8
:10389000104BD3ED0D7A66EEA77A77EE277A0D4BB3
:1038A000C3ED117A0B4BDB6A104A136001E017EE8F
:1038B000903A18462037BD46B0BD00BFAFF3008038
:1038C0009A9999999999C93F9A9999999999E93F9A
:1038D0006F12033B50050020E425002000009643B2
:1038E000000096C3E8250020EC250020F0250020EC
:1038F00080B485B000AF87ED030AC7ED020A87EDFB
:10390000011A97ED037AD7ED027AB4EEE77AF1EE79
:1039100010FA02DDBB68FB600AE097ED037AD7ED91
:10392000017AB4EEE77AF1EE10FA01D57B68FB601C
:10393000FB6807EE903AB0EE670A1437BD465DF8B3
:10394000047B704780B500AF0E4B1B680D4A43F4F3
:10395000007313600B4B1B680A4A43F480631360C7
:10396000084B1B68074A43F480731360032000F080
:103970004FF9002000F008F8FEF704FF0023184676
:1039800080BD00BF003C024080B582B000AF7860CF
:10399000124B1A68124B1B7819464FF47A73B3FB1B
:1039A000F1F3B2FBF3F3184600F067F90346002B7E
:1039B00001D001230EE07B680F2B0AD80022796822
:1039C0004FF0FF3000F02FF9064A7B6813600023A8
:1039D00000E0012318460837BD4680BD680400207A
:1039E000A00500209C05002080B400AF064B1B788A
:1039F0001A46064B1B681344044A136000BFBD46B9
:103A00005DF8047B704700BFA0050020F42500206E
:103A100080B400AF034B1B681846BD465DF8047BBD
:103A2000704700BFF425002080B584B000AF7860F7
:103A3000FFF7EEFFB8607B68FB60FB68B3F1FF3F08
:103A400005D00A4B1B781A46FB681344FB6000BF85
:103A5000FFF7DEFF0246BB68D31AFA689A42F7D82E
:103A600000BF00BF1037BD4680BD00BFA0050020CD
:103A700080B485B000AF78607B6803F00703FB601B
:103A80000C4BDB68BB60BA684FF6FF031340BB60AA
:103A9000FB681A02BB68134343F0BF6343F400336F
:103AA000BB60044ABB68D36000BF1437BD465DF8F5
:103AB000047B704700ED00E080B400AF044BDB688E
:103AC0001B0A03F007031846BD465DF8047B7047E8
:103AD00000ED00E080B483B000AF0346FB7197F9BE
:103AE0000730002B0BDBFB7903F01F02074997F926
:103AF00007305B09012000FA02F241F8232000BFE1
:103B00000C37BD465DF8047B704700BF00E100E064
:103B100080B483B000AF03463960FB7197F907307A
:103B2000002B0ADB3B68DAB20C4997F90730120127
:103B3000D2B20B4483F800230AE03B68DAB20849AA
:103B4000FB7903F00F03043B1201D2B20B441A7647
:103B500000BF0C37BD465DF8047B704700E100E014
:103B600000ED00E080B489B000AFF860B9607A6021
:103B7000FB6803F00703FB61FB69C3F10703042B38
:103B800028BF0423BB61FB690433062B02D9FB6900
:103B9000033B00E000237B614FF0FF32BB6902FA78
:103BA00003F3DA43BB681A407B699A404FF0FF3158
:103BB0007B6901FA03F3D9437B680B401343184632
:103BC0002437BD465DF8047B7047000080B582B0A5
:103BD00000AF78607B68013BB3F1807F01D30123A4
:103BE0000FE00A4A7B68013B53600F214FF0FF3022
:103BF000FFF78EFF054B00229A60044B07221A60E4
:103C0000002318460837BD4680BD00BF10E000E025
:103C100080B582B000AF78607868FFF729FF00BFF9
:103C20000837BD4680BD80B586B000AF0346B96099
:103C30007A60FB7300237B61FFF73EFF78617A684F
:103C4000B9687869FFF78EFF024697F90F30114681
:103C50001846FFF75DFF00BF1837BD4680BD80B531
:103C600082B000AF0346FB7197F907301846FFF7A3
:103C700031FF00BF0837BD4680BD80B582B000AFC0
:103C800078607868FFF7A2FF034618460837BD46FC
:103C900080BD000080B586B000AF78607B68002BE7
:103CA00001D1012367E27B681B6803F00103002B4D
:103CB00075D0884B9B6803F00C03042B0CD0854B0C
:103CC0009B6803F00C03082B12D1824B5B6803F452
:103CD0008003B3F5800F0BD17E4B1B6803F40033D8
:103CE000002B5BD07B685B68002B57D1012342E23D
:103CF0007B685B68B3F5803F06D1764B1B68754ADD
:103D000043F4803313601DE07B685B68B3F5A02F3C
:103D10000CD1704B1B686F4A43F4802313606D4BCA
:103D20001B686C4A43F4803313600BE0694B1B68DB
:103D3000684A23F480331360664B1B68654A23F49A
:103D4000802313607B685B68002B13D0FFF760FE55
:103D5000386108E0FFF75CFE02463B69D31A642B2A
:103D600001D9032307E25B4B1B6803F40033002BEC
:103D7000F0D014E0FFF74CFE386108E0FFF748FE92
:103D800002463B69D31A642B01D90323F3E1514B5B
:103D90001B6803F40033002BF0D100E000BF7B6808
:103DA0001B6803F00203002B63D04A4B9B6803F0AF
:103DB0000C03002B0BD0474B9B6803F00C03082B24
:103DC0001CD1444B5B6803F48003002B16D1414B9C
:103DD0001B6803F00203002B05D07B68DB68012B16
:103DE00001D00123C7E13B4B1B6823F0F8027B683D
:103DF0001B69DB00374913430B603AE07B68DB68E3
:103E0000002B20D0344B01221A60FFF701FE3861ED
:103E100008E0FFF7FDFD02463B69D31A022B01D9EA
:103E20000323A8E12B4B1B6803F00203002BF0D007
:103E3000284B1B6823F0F8027B681B69DB002549CF
:103E400013430B6015E0244B00221A60FFF7E0FDDE
:103E5000386108E0FFF7DCFD02463B69D31A022B0C
:103E600001D9032387E11B4B1B6803F00203002BDE
:103E7000F0D17B681B6803F00803002B36D07B6809
:103E80005B69002B16D0154B01221A60FFF7C0FDAD
:103E9000386108E0FFF7BCFD02463B69D31A022BEC
:103EA00001D9032367E10B4B5B6F03F00203002B87
:103EB000F0D01BE0094B00221A60FFF7A9FD386122
:103EC0000EE0FFF7A5FD02463B69D31A022B07D986
:103ED000032350E10038024000004742800E474271
:103EE000884B5B6F03F00203002BEAD17B681B68F1
:103EF00003F00403002B00F097800023FB75814B37
:103F00001B6C03F08053002B0FD10023BB607D4B53
:103F10001B6C7C4A43F0805313647A4B1B6C03F098
:103F20008053BB60BB680123FB75774B1B6803F4B0
:103F30008073002B18D1744B1B68734A43F4807351
:103F40001360FFF765FD386108E0FFF761FD024689
:103F50003B69D31A022B01D903230CE16A4B1B687E
:103F600003F48073002BF0D07B689B68012B06D193
:103F7000644B1B6F634A43F0010313671CE07B68CB
:103F80009B68052B0CD15F4B1B6F5E4A43F004030B
:103F900013675C4B1B6F5B4A43F0010313670BE035
:103FA000584B1B6F574A23F001031367554B1B6F88
:103FB000544A23F0040313677B689B68002B15D0D9
:103FC000FFF726FD38610AE0FFF722FD02463B6954
:103FD000D31A41F28832934201D90323CBE0494BF3
:103FE0001B6F03F00203002BEED014E0FFF710FD6F
:103FF00038610AE0FFF70CFD02463B69D31A41F233
:104000008832934201D90323B5E03E4B1B6F03F086
:104010000203002BEED1FB7D012B05D1394B1B6C2C
:10402000384A23F0805313647B689B69002B00F0AF
:10403000A180344B9B6803F00C03082B5CD07B6899
:104040009B69022B41D1314B00221A60FFF7E0FC43
:10405000386108E0FFF7DCFC02463B69D31A022B0B
:1040600001D9032387E0274B1B6803F00073002B63
:10407000F0D17B68DA697B681B6A1A437B685B6AEC
:104080009B011A437B689B6A5B08013B1B041A4334
:104090007B68DB6A1B061B4913434B601B4B0122E9
:1040A0001A60FFF7B5FC386108E0FFF7B1FC024683
:1040B0003B69D31A022B01D903235CE0114B1B6827
:1040C00003F00073002BF0D054E0104B00221A6074
:1040D000FFF79EFC386108E0FFF79AFC02463B6957
:1040E000D31A022B01D9032345E0064B1B6803F0CA
:1040F0000073002BF0D13DE07B689B69012B07D159
:10410000012338E000380240007000406000474260
:104110001B4B5B68FB607B689B69012B28D0FB68AD
:1041200003F480027B68DB699A4221D1FB6803F0CB
:104130003F027B681B6A9A421AD1FA6847F6C0733D
:1041400013407A68526A9201934211D1FB6803F4DA
:1041500040327B689B6A5B08013B1B049A4207D193
:10416000FB6803F070627B68DB6A1B069A4201D031
:10417000012300E0002318461837BD4680BD00BF6C
:104180000038024080B584B000AF786039607B6849
:10419000002B01D10123CCE0684B1B6803F007031F
:1041A0003A689A420CD9654B3A68D2B21A70634B9E
:1041B0001B6803F007033A689A4201D00123B8E074
:1041C0007B681B6803F00203002B20D07B681B6810
:1041D00003F00403002B05D0594B9B68584A43F465
:1041E000E05393607B681B6803F00803002B05D045
:1041F000534B9B68524A43F460439360504B9B6817
:1042000023F0F0027B689B684D4913438B607B6809
:104210001B6803F00103002B44D07B685B68012B13
:1042200007D1474B1B6803F40033002B19D101233E
:104230007FE07B685B68022B03D07B685B68032BA5
:1042400007D13F4B1B6803F00073002B09D10123FA
:104250006FE03B4B1B6803F00203002B01D10123ED
:1042600067E0374B9B6823F003027B685B68344947
:1042700013438B60FFF7CCFBF8600AE0FFF7C8FB45
:104280000246FB68D31A41F28832934201D90323D4
:104290004FE02B4B9B6803F00C027B685B689B0034
:1042A0009A42EBD1254B1B6803F007033A689A4208
:1042B0000CD2224B3A68D2B21A70204B1B6803F022
:1042C00007033A689A4201D0012332E07B681B68F9
:1042D00003F00403002B08D0194B9B6823F4E05231
:1042E0007B68DB68164913438B607B681B6803F0AF
:1042F0000803002B09D0124B9B6823F460427B68B3
:104300001B69DB000E4913438B6000F021F8024665
:104310000B4B9B681B0903F00F030A49CB5C22FA85
:1043200003F3094A1360094B1B681846FFF72CFB7F
:10433000002318461037BD4680BD00BF003C024038
:1043400000380240A4750108680400209C05002084
:104350002DE9B04F94B000AF00237B640023FB64D1
:1043600000233B640023BB64794B9B6803F00C0380
:10437000082B0DD0082B00F2E180002B02D0042B7B
:1043800003D0DBE0734BBB64DBE0734BBB64D8E072
:104390006F4B5B6803F03F037B646D4B5B6803F41A
:1043A0008003002B63D06A4B5B689B090022BB63D0
:1043B000FA63BB6BC3F308033B6300237B63D7E95A
:1043C0000C4522462B464FF000004FF000015901EA
:1043D00041EAD261500102460B462146511A396129
:1043E000294663EB01037B614FF000024FF00003AD
:1043F000D7E904AB59468B01514643EA91635146D4
:104400008A015146B2EB0108594663EB01094FF0AE
:1044100000024FF000034FEAC90343EA58734FEA22
:10442000C80290469946234618EB0303BB602B460F
:1044300049EB0303FB604FF000024FF00003D7E9A4
:10444000024529464B02214643EAD15321464A02FE
:10445000104619467B6C0022BB62FA62D7E90A2338
:10446000FCF762FD02460B461346FB6458E0384BEE
:104470005B689B09002218461146C0F308033B62A3
:1044800000237B62D7E9088942464B464FF0000083
:104490004FF00001590141EAD261500102460B463A
:1044A0004146B2EB010A494663EB010B4FF00002B3
:1044B0004FF000034FEA8B1343EA9A634FEA8A12E4
:1044C000B2EB0A0463EB0B054FF000024FF0000360
:1044D000EB0043EA5473E20014461D464346E318DA
:1044E0003B604B4645EB03037B604FF000024FF00F
:1044F0000003D7E9004529468B02214643EA915340
:1045000021468A02104619467B6C0022BB61FA6183
:10451000D7E90623FCF708FD02460B461346FB6469
:104520000B4B5B681B0C03F0030301335B003B6424
:10453000FA6C3B6CB2FBF3F3BB6402E0054BBB646B
:1045400000BFBB6C18465037BD46BDE8B08F00BFFA
:10455000003802400024F40000127A0080B400AF5A
:10456000034B1B681846BD465DF8047B704700BFCF
:104570006804002080B500AFFFF7F0FF0246054B4E
:104580009B689B0A03F007030349CB5C22FA03F301
:10459000184680BD00380240B475010880B500AFF0
:1045A000FFF7DCFF0246054B9B685B0B03F007033C
:1045B0000349CB5C22FA03F3184680BD0038024061
:1045C000B475010880B586B000AF786000237B61C8
:1045D000FFF71EFA38617B68002B01D1012399E0B7
:1045E0007B68002283F834207B68022283F8352020
:1045F0007B681B681A687B681B6822F001021A60DE
:104600000FE0FFF705FA02463B69D31A052B08D9DC
:104610007B6820225A657B68032283F835200323B8
:1046200078E07B681B681B6803F00103002BE8D16E
:104630007B681B681B687B617A69384B13407B6120
:104640007B685A687B689B681A437B68DB681A43FF
:104650007B681B691A437B685B691A437B689B69AB
:104660001A437B68DB691A437B681B6A13437A69C8
:1046700013437B617B685B6A042B07D17B68DA6A32
:104680007B681B6B13437A6913437B617B681B68F0
:104690007A691A607B681B685B697B617B6923F0C0
:1046A00007037B617B685B6A7A6913437B617B6884
:1046B0005B6A042B17D17B689B6A7A6913437B6121
:1046C0007B68DB6A002B0ED0786800F00FFB034696
:1046D000002B08D07B6840225A657B68012283F852
:1046E0003520012316E07B681B687A695A61786877
:1046F00000F0C6FA0346FB607B68DB6D3F229A4000
:10470000FB689A607B6800225A657B68012283F807
:104710003520002318461837BD4680BD3F8010F075
:1047200080B586B000AFF860B9607A603B60002366
:10473000FB75FB689B6D3B61FB6893F83430012B84
:1047400001D1022340E0FB68012283F83420FB689A
:1047500093F83530DBB2012B2FD1FB68022283F8AE
:104760003520FB6800225A653B687A68B968F868AA
:1047700000F058FAFB68DB6D3F229A403B699A6073
:10478000FB681B681A68FB681B6842F016021A6017
:10479000FB681B6C002B07D0FB681B681A68FB6862
:1047A0001B6842F008021A60FB681B681A68FB6805
:1047B0001B6842F001021A6005E0FB68002283F8E2
:1047C00034200223FB75FB7D18461837BD4680BD9B
:1047D00080B584B000AF78607B689B6DFB60FFF7AD
:1047E00017F9B8607B6893F83530DBB2022B08D03C
:1047F0007B6880225A657B68002283F8342001237D
:1048000052E07B681B681A687B681B6822F01602FE
:104810001A607B681B685A697B681B6822F08002FB
:104820005A617B681B6C002B03D17B689B6C002B4F
:1048300007D07B681B681A687B681B6822F0080237
:104840001A607B681B681A687B681B6822F001028B
:104850001A6013E0FFF7DCF80246BB68D31A052B99
:104860000CD97B6820225A657B68002283F83420AB
:104870007B68032283F83520032315E07B681B68DF
:104880001B6803F00103002BE4D17B68DB6D3F2242
:104890009A40FB689A607B68002283F834207B682A
:1048A000012283F83520002318461037BD4680BD0D
:1048B00080B483B000AF78607B6893F83530DBB2AA
:1048C000022B04D07B6880225A6501230CE07B68B0
:1048D000052283F835207B681B681A687B681B6893
:1048E00022F001021A60002318460C37BD465DF81D
:1048F000047B704780B586B000AF78600023BB6052
:104900008E4B1B688E4AA2FB03239B0A7B617B684C
:104910009B6D3B613B691B68FB607B68DB6D08221C
:104920009A40FB681340002B1AD07B681B681B68F9
:1049300003F00403002B13D07B681B681A687B68A4
:104940001B6822F004021A607B68DB6D08229A4023
:104950003B699A607B685B6D43F001027B685A6536
:104960007B68DB6D01229A40FB681340002B12D05C
:104970007B681B685B6903F08003002B0BD07B68AE
:10498000DB6D01229A403B699A607B685B6D43F066
:1049900002027B685A657B68DB6D04229A40FB68E3
:1049A0001340002B12D07B681B681B6803F00203C6
:1049B000002B0BD07B68DB6D04229A403B699A6028
:1049C0007B685B6D43F004027B685A657B68DB6D36
:1049D00010229A40FB681340002B43D07B681B6871
:1049E0001B6803F00803002B3CD07B68DB6D1022B2
:1049F0009A403B699A607B681B681B6803F48023BC
:104A0000002B18D07B681B681B6803F40023002B65
:104A100008D17B681B6C002B24D07B681B6C7868EA
:104A200098471FE07B689B6C002B1BD07B689B6CBE
:104A30007868984716E07B681B681B6803F48073EE
:104A4000002B07D17B681B681A687B681B6822F003
:104A500008021A607B681B6C002B03D07B681B6C00
:104A6000786898477B68DB6D20229A40FB6813408A
:104A7000002B00F08F807B681B681B6803F010031D
:104A8000002B00F087807B68DB6D20229A403B6919
:104A90009A607B6893F83530DBB2052B36D17B68A2
:104AA0001B681A687B681B6822F016021A607B6814
:104AB0001B685A697B681B6822F080025A617B6818
:104AC0001B6C002B03D17B689B6C002B07D07B6891
:104AD0001B681A687B681B6822F008021A607B68F2
:104AE000DB6D3F229A403B699A607B68002283F825
:104AF00034207B68012283F835207B681B6D002BF6
:104B00007ED07B681B6D7868984779E07B681B686E
:104B10001B6803F48023002B1DD07B681B681B6877
:104B200003F40023002B0DD17B685B6C002B31D08C
:104B30007B685B6C786898472CE000BF68040020B5
:104B4000B5814E1B7B68DB6B002B23D07B68DB6B56
:104B5000786898471EE07B681B681B6803F48073C5
:104B6000002B0FD17B681B681A687B681B6822F0DA
:104B700010021A607B68002283F834207B680122CF
:104B800083F835207B68DB6B002B03D07B68DB6B05
:104B9000786898477B685B6D002B32D07B685B6DD3
:104BA00003F00103002B22D07B68052283F8352017
:104BB0007B681B681A687B681B6822F001021A6018
:104BC000BB680133BB607A699A4207D37B681B6874
:104BD0001B6803F00103002BF2D100E000BF7B68EB
:104BE000002283F834207B68012283F835207B681B
:104BF000DB6C002B05D07B68DB6C7868984700E0A5
:104C000000BF1837BD4680BD80B483B000AF786068
:104C10007B6893F83530DBB218460C37BD465DF83B
:104C2000047B704780B485B000AFF860B9607A60EB
:104C30003B60FB681B681A68FB681B6822F48022D3
:104C40001A60FB681B683A685A60FB689B68402BD7
:104C500008D1FB681B687A689A60FB681B68BA68B1
:104C6000DA6007E0FB681B68BA689A60FB681B683B
:104C70007A68DA6000BF1437BD465DF8047B704780
:104C800080B485B000AF78607B681B68DBB2103BF6
:104C9000144AA2FB03231B09FB60134AFB6813445D
:104CA0001B781A467B68DA65FB68032B09D97B6899
:104CB0001B6823F47F7323F003031A1D7B689A6536
:104CC00007E07B681B6823F47F7323F003037A6893
:104CD00093657B689B6D18461437BD465DF8047B71
:104CE000704700BFABAAAAAABC75010880B485B002
:104CF00000AF78600023FB737B689B6ABB607B68B6
:104D00009B69002B1FD1BB68032B56D801A252F818
:104D100023F000BF254D0008374D0008254D000841
:104D2000BB4D00087B68DB6A03F08073002B46D024
:104D30000123FB7343E07B68DB6AB3F1C07F40D1A2
:104D40000123FB733DE07B689B69B3F5005F21D1D4
:104D5000BB68032B37D801A252F823F06D4D000831
:104D6000734D00086D4D0008854D00080123FB734D
:104D700030E07B68DB6A03F08073002B25D00123D1
:104D8000FB7322E07B68DB6AB3F1C07F1FD1012394
:104D9000FB731CE0BB68022B03D9BB68032B03D059
:104DA00018E00123FB7315E07B68DB6A03F0807376
:104DB000002B0ED00123FB730BE000BF0AE000BF05
:104DC00008E000BF06E000BF04E000BF02E000BF53
:104DD00000E000BFFB7B18461437BD465DF8047B3E
:104DE000704700BF80B489B000AF7860396000239D
:104DF0007B6100233B610023BB610023FB616BE10E
:104E00000122FB6902FA03F37B613B681B687A6944
:104E100013403B613A697B699A4240F05A813B6892
:104E20005B6803F00303012B05D03B685B6803F06C
:104E30000303022B30D17B689B68BB61FB695B007D
:104E4000032202FA03F3DB43BA691340BB613B68F8
:104E5000DA68FB695B0002FA03F3BA691343BB61CA
:104E60007B68BA699A607B685B68BB610122FB69F9
:104E700002FA03F3DB43BA691340BB613B685B682A
:104E80001B0903F00102FB6902FA03F3BA69134339
:104E9000BB617B68BA695A603B685B6803F00303D7
:104EA000032B17D07B68DB68BB61FB695B000322C7
:104EB00002FA03F3DB43BA691340BB613B689A68AB
:104EC000FB695B0002FA03F3BA691343BB617B68B9
:104ED000BA69DA603B685B6803F00303022B23D1F5
:104EE000FB69DA087B68083253F82230BB61FB6942
:104EF00003F007039B000F2202FA03F3DB43BA69B6
:104F00001340BB613B681A69FB6903F007039B0010
:104F100002FA03F3BA691343BB61FB69DA087B68E1
:104F20000832B96943F822107B681B68BB61FB69D2
:104F30005B00032202FA03F3DB43BA691340BB614F
:104F40003B685B6803F00302FB695B0002FA03F352
:104F5000BA691343BB617B68BA691A603B685B68D6
:104F600003F08053002B00F0B4800023FB60604B03
:104F70005B6C5F4A43F4804353645D4B5B6C03F4AA
:104F80008043FB60FB685B4AFB699B08023352F875
:104F90002330BB61FB6903F003039B000F2202FA7D
:104FA00003F3DB43BA691340BB617B68524A934207
:104FB0002BD07B68514A934225D07B68504A93425C
:104FC0001FD07B684F4A934219D07B684E4A934268
:104FD00013D07B684D4A93420DD07B684C4A934274
:104FE00007D07B684B4A934201D107230EE0082388
:104FF0000CE006230AE0052308E0042306E003236F
:1050000004E0022302E0012300E00023FA6902F039
:10501000030292009340BA691343BB613549FB69AF
:105020009B080233BA6941F823203B4B1B68BB61E4
:105030003B69DB43BA691340BB613B685B6803F4BF
:105040008033002B03D0BA693B691343BB61324AFA
:10505000BB691360304B5B68BB613B69DB43BA697A
:105060001340BB613B685B6803F40033002B03D043
:10507000BA693B691343BB61274ABB695360264B3E
:105080009B68BB613B69DB43BA691340BB613B680A
:105090005B6803F48013002B03D0BA693B691343A8
:1050A000BB611D4ABB6993601B4BDB68BB613B69FD
:1050B000DB43BA691340BB613B685B6803F40013D0
:1050C000002B03D0BA693B691343BB61124ABB6929
:1050D000D360FB690133FB61FB690F2B7FF690AE58
:1050E00000BF00BF2437BD465DF8047B704700BF9A
:1050F0000038024000380140000002400004024035
:1051000000080240000C024000100240001402405F
:1051100000180240001C0240003C014080B483B0F3
:1051200000AF78600B467B8013467B707B78002B4A
:1051300003D07A887B689A6103E07B881A047B68D5
:105140009A6100BF0C37BD465DF8047B704780B59F
:1051500082B000AF78607B68002B01D1012341E071
:105160007B6893F83D30DBB2002B06D17B680022D0
:1051700083F83C207868FDF72DFB7B68022283F8DA
:105180003D207B681A687B6804331946104600F09E
:10519000D1FA7B68012283F846207B68012283F8DC
:1051A0003E207B68012283F83F207B68012283F840
:1051B00040207B68012283F841207B68012283F82C
:1051C00042207B68012283F843207B68012283F818
:1051D00044207B68012283F845207B68012283F804
:1051E0003D20002318460837BD4680BD80B582B0FB
:1051F00000AF78607B68002B01D1012341E07B6820
:1052000093F83D30DBB2002B06D17B68002283F897
:105210003C20786800F039F87B68022283F83D2052
:105220007B681A687B6804331946104600F082FADE
:105230007B68012283F846207B68012283F83E20A8
:105240007B68012283F83F207B68012283F840209D
:105250007B68012283F841207B68012283F8422089
:105260007B68012283F843207B68012283F8442075
:105270007B68012283F845207B68012283F83D206A
:10528000002318460837BD4680BD80B483B000AF08
:10529000786000BF0C37BD465DF8047B70470000A6
:1052A00080B584B000AF786039603B68002B09D1CD
:1052B0007B6893F83E30DBB2012B14BF012300233F
:1052C000DBB222E03B68042B09D17B6893F83F30C6
:1052D000DBB2012B14BF01230023DBB215E03B68D6
:1052E000082B09D17B6893F84030DBB2012B14BF47
:1052F00001230023DBB208E07B6893F84130DBB286
:10530000012B14BF01230023DBB2002B01D00123AA
:105310007CE03B68002B04D17B68022283F83E20AE
:1053200013E03B68042B04D17B68022283F83F2002
:105330000BE03B68082B04D17B68022283F84020F5
:1053400003E07B68022283F841207B681B6801220E
:105350003968184600F0D8FC7B681B682D4A9342D8
:1053600004D07B681B682C4A934201D1012300E0E2
:105370000023002B07D07B681B685A6C7B681B6876
:1053800042F400425A647B681B68224A934222D04E
:105390007B681B68B3F1804F1DD07B681B681F4A78
:1053A000934218D07B681B681D4A934213D07B68D8
:1053B0001B681C4A93420ED07B681B68164A9342B6
:1053C00009D07B681B68184A934204D07B681B682D
:1053D000164A934211D17B681B689B6803F0070350
:1053E000FB60FB68062B10D07B681B681A687B6823
:1053F0001B6842F001021A6007E07B681B681A68AC
:105400007B681B6842F001021A60002318461037BF
:10541000BD4680BD00000140000401400004004082
:1054200000080040000C004000400140001800400F
:1054300080B584B000AFF860B9607A60FB6893F81B
:105440003C30012B01D10223ACE0FB68012283F840
:105450003C207B680C2B00F29F8001A252F823F0C5
:105460009554000899550008995500089955000869
:10547000D554000899550008995500089955000819
:1054800017550008995500089955000899550008C6
:1054900057550008FB681B68B968184600F0EAF920
:1054A000FB681B689A69FB681B6842F008029A61F6
:1054B000FB681B689A69FB681B6822F004029A610A
:1054C000FB681B689969BB681A69FB681B680A431B
:1054D0009A6162E0FB681B68B968184600F03AFA06
:1054E000FB681B689A69FB681B6842F400629A615A
:1054F000FB681B689A69FB681B6822F480629A61EA
:10550000FB681B689969BB681B691A02FB681B680A
:105510000A439A6141E0FB681B68B968184600F0CD
:105520008FFAFB681B68DA69FB681B6842F00802A7
:10553000DA61FB681B68DA69FB681B6822F0040209
:10554000DA61FB681B68D969BB681A69FB681B686C
:105550000A43DA6121E0FB681B68B968184600F06D
:10556000E3FAFB681B68DA69FB681B6842F40062B7
:10557000DA61FB681B68DA69FB681B6822F48062E9
:10558000DA61FB681B68D969BB681B691A02FB6892
:105590001B680A43DA6100E000BFFB68002283F861
:1055A0003C20002318461037BD4680BD80B584B02E
:1055B00000AF786039607B6893F83C30012B01D1F3
:1055C0000223B3E07B68012283F83C207B6802223F
:1055D00083F83D207B681B689B68FB60FB6823F0B9
:1055E0007703FB60FB6823F47F43FB607B681B68E9
:1055F000FA689A603B681B68B3F5005F3ED0B3F56C
:10560000005F00F28780B3F5805F00F08580B3F51E
:10561000805F7FD8702B1AD0702B7BD8602B50D036
:10562000602B77D8502B3CD0502B73D8402B58D0C0
:10563000402B6FD8302B64D0302B6BD8202B60D010
:10564000202B67D8002B5CD0102B5AD062E07B68EF
:1056500018683B6899683B685A683B68DB6800F0EB
:1056600033FB7B681B689B68FB60FB6843F0770338
:10567000FB607B681B68FA689A604EE07B6818687C
:105680003B6899683B685A683B68DB6800F01CFB24
:105690007B681B689A687B681B6842F480429A604A
:1056A0003BE07B6818683B6859683B68DB681A46D2
:1056B00000F090FA7B681B685021184600F0E9FA68
:1056C0002BE07B6818683B6859683B68DB681A46C2
:1056D00000F0AFFA7B681B686021184600F0D9FA29
:1056E0001BE07B6818683B6859683B68DB681A46B2
:1056F00000F070FA7B681B684021184600F0C9FA78
:105700000BE07B681A683B681B681946104600F07E
:10571000C0FA02E000BF00E000BF7B68012283F80E
:105720003D207B68002283F83C2000231846103778
:10573000BD4680BD80B485B000AF786039607B68BD
:105740001B68FB607B68404A934213D07B68B3F1CF
:10575000804F0FD07B683D4A93420BD07B683C4A18
:10576000934207D07B683B4A934203D07B683A4A16
:10577000934208D1FB6823F07003FB603B685B68D1
:10578000FA681343FB607B682F4A93422BD07B68F7
:10579000B3F1804F27D07B682C4A934223D07B689B
:1057A0002B4A93421FD07B682A4A93421BD07B68C6
:1057B000294A934217D07B68284A934213D07B68CA
:1057C000274A93420FD07B68264A93420BD07B68CE
:1057D000254A934207D07B68244A934203D07B68D2
:1057E000234A934208D1FB6823F44073FB603B6873
:1057F000DB68FA681343FB60FB6823F080023B68B8
:105800005B691343FB607B68FA681A603B689A68BF
:105810007B68DA623B681A687B689A627B680A4A2E
:10582000934203D07B680C4A934203D13B681A69C8
:105830007B681A637B6801225A6100BF1437BD463A
:105840005DF8047B704700BF000001400004004089
:1058500000080040000C00400004014000400140EE
:10586000004401400048014000180040001C004076
:105870000020004080B487B000AF786039607B685A
:105880001B6A23F001027B681A627B681B6A7B61DA
:105890007B685B683B617B689B69FB60FB6823F00E
:1058A0007003FB60FB6823F00303FB603B681B682D
:1058B000FA681343FB607B6923F002037B613B685A
:1058C0009B687A6913437B617B68204A934203D0CB
:1058D0007B681F4A93420CD17B6923F008037B61EC
:1058E0003B68DB687A6913437B617B6923F00403BF
:1058F0007B617B68154A934203D07B68144A9342CC
:1059000011D13B6923F480733B613B6923F400733D
:105910003B613B685B693A6913433B613B689B6948
:105920003A6913433B617B683A695A607B68FA685D
:105930009A613B685A687B685A637B687A691A6225
:1059400000BF1C37BD465DF8047B70470000014076
:105950000004014080B487B000AF786039607B6894
:105960001B6A23F010027B681A627B681B6A7B61EA
:105970007B685B683B617B689B69FB60FB6823F429
:10598000E043FB60FB6823F44073FB603B681B68EB
:105990001B02FA681343FB607B6923F020037B61E1
:1059A0003B689B681B017A6913437B617B68224AD1
:1059B000934203D07B68214A93420DD17B6923F047
:1059C00080037B613B68DB681B017A6913437B6161
:1059D0007B6923F040037B617B68174A934203D0C5
:1059E0007B68164A934213D13B6923F480633B6181
:1059F0003B6923F400633B613B685B699B003A6948
:105A000013433B613B689B699B003A6913433B61CD
:105A10007B683A695A607B68FA689A613B685A68A1
:105A20007B689A637B687A691A6200BF1C37BD463F
:105A30005DF8047B704700BF000001400004014096
:105A400080B487B000AF786039607B681B6A23F44C
:105A500080727B681A627B681B6A7B617B685B680B
:105A60003B617B68DB69FB60FB6823F07003FB60D4
:105A7000FB6823F00303FB603B681B68FA68134371
:105A8000FB607B6923F400737B613B689B681B02AE
:105A90007A6913437B617B68214A934203D07B6818
:105AA000204A93420DD17B6923F400637B613B68FC
:105AB000DB681B027A6913437B617B6923F4806393
:105AC0007B617B68164A934203D07B68154A9342F8
:105AD00013D13B6923F480533B613B6923F40053AA
:105AE0003B613B685B691B013A6913433B613B685F
:105AF0009B691B013A6913433B617B683A695A60B1
:105B00007B68FA68DA613B685A687B68DA637B68AD
