:020000040800F2
:100000000000022069C40008B9C40008B9C400088F
:10001000B9C40008B9C40008B9C400080000000051
:10002000000000000000000000000000D1C3000834
:10003000B9C400080000000001C40008D11D000878
:10004000B9C40008B9C40008B9C40008B9C400089C
:10005000B9C40008B9C40008B9C40008B9C400088C
:10006000B9C40008B9C40008B9C40008B9C400087C
:10007000B9C40008B9C40008B9C40008B9C400086C
:10008000BD1D0008B9C40008B9C40008B9C40008FF
:10009000B9C40008B9C40008B9C40008B9C400084C
:1000A000B9C40008B9C40008B9C40008B9C400083C
:1000B000B9C40008B9C40008B9C40008DD1D0008AF
:1000C000B9C40008B9C40008B9C40008B9C400081C
:1000D000B9C40008DD1C0008A91D0008B9C4000847
:1000E000B9C40008B9C40008B9C40008B9C40008FC
:1000F000B9C40008B9C40008B9C40008B9C40008EC
:10010000B9C40008B9C40008B9C40008B9C40008DB
:10011000B9C40008B9C40008B9C40008B9C40008CB
:10012000B9C40008B9C40008951D0008B9C4000886
:10013000B9C40008B9C40008B9C40008B9C40008AB
:10014000B9C40008B9C40008B9C40008B9C400089B
:10015000B9C40008B9C40008B9C40008B9C400088B
:10016000B9C40008B9C40008B9C40008B9C400087B
:10017000B9C40008B9C40008B9C4000800000000F0
:08018000B9C40008B9C400086D
:1001C00010B5054C237833B9044B13B10448AFF391
:1001D00000800123237010BDDC0A00200000000015
:1001E0002C3C010808B5034B1BB103490348AFF38E
:1001F000008008BD00000000E00A00202C3C01083F
:10020000844641EA000313F003036DD1403A41D321
:1002100051F8043B40F8043B51F8043B40F8043BE0
:1002200051F8043B40F8043B51F8043B40F8043BD0
:1002300051F8043B40F8043B51F8043B40F8043BC0
:1002400051F8043B40F8043B51F8043B40F8043BB0
:1002500051F8043B40F8043B51F8043B40F8043BA0
:1002600051F8043B40F8043B51F8043B40F8043B90
:1002700051F8043B40F8043B51F8043B40F8043B80
:1002800051F8043B40F8043B51F8043B40F8043B70
:10029000403ABDD2303211D351F8043B40F8043B10
:1002A00051F8043B40F8043B51F8043B40F8043B50
:1002B00051F8043B40F8043B103AEDD20C3205D320
:1002C00051F8043B40F8043B043AF9D2043208D018
:1002D000D2071CBF11F8013B00F8013B01D30B888A
:1002E00003806046704700BF082A13D38B078DD068
:1002F00010F003038AD0C3F10403D21ADB071CBF3A
:1003000011F8013B00F8013B80D331F8023B20F8A3
:10031000023B7BE7043AD9D3013A11F8013B00F8DC
:10032000013BF9D20B7803704B7843708B78837064
:100330006046704700000000000000000000000060
:1003400090F800F06DE9024520F007016FF0000C15
:1003500010F0070491F820F040F049804FF00004BD
:100360006FF00700D1E9002391F840F000F1080098
:1003700082FA4CF2A4FA8CF283FA4CF3A2FA8CF3D0
:100380004BBBD1E9022382FA4CF200F10800A4FA37
:100390008CF283FA4CF3A2FA8CF3E3B9D1E904238B
:1003A00082FA4CF200F10800A4FA8CF283FA4CF3C2
:1003B000A2FA8CF37BB9D1E9062301F1200182FA7C
:1003C0004CF200F10800A4FA8CF283FA4CF3A2FA82
:1003D0008CF3002BC6D0002A04BF04301A4612BA90
:1003E000B2FA82F2FDE8024500EBD2007047D1E993
:1003F000002304F00305C4F100004FEAC50514F022
:10040000040F91F840F00CFA05F562EA05021CBFF2
:1004100063EA050362464FF00004A9E7000000000C
:1004200001F0FF01102A2BDB10F0070F08D010F8A5
:10043000013B013A8B422DD010F0070F42B3F6D1A9
:10044000F0B441EA012141EA014122F007047FF0C2
:1004500000070023F0E80256083C85EA010586EA19
:10046000010685FA47F5A3FA87F586FA47F6A5FA55
:1004700087F68EB9EED1F0BC01F0FF0102F0070261
:1004800032B110F8013B013A83EA010313B1F8D10C
:100490000020704701387047002D06BF35460338ED
:1004A000073815F0010F07D1013015F4807F02BF26
:1004B000013015F4C03F0130F0BC0138704700BF77
:1004C00081F0004102E000BF83F0004330B54FEA05
:1004D00041044FEA430594EA050F08BF90EA020F72
:1004E0001FBF54EA000C55EA020C7FEA645C7FEA05
:1004F000655C00F0E2804FEA5454D4EB5555B8BF28
:100500006D420CDD2C4480EA020281EA030382EA98
:10051000000083EA010180EA020281EA0303362D2A
:1005200088BF30BD11F0004F4FEA01314FF4801CFD
:100530004CEA113102D0404261EB410113F0004F0F
:100540004FEA03334CEA133302D0524263EB4303C6
:1005500094EA050F00F0A780A4F10104D5F1200E64
:100560000DDB02FA0EFC22FA05F2801841F10001BF
:1005700003FA0EF2801843FA05F359410EE0A5F193
:1005800020050EF1200E012A03FA0EFC28BF4CF0C4
:10059000020C43FA05F3C01851EBE37101F000457A
:1005A00007D54FF0000EDCF1000C7EEB00006EEB87
:1005B0000101B1F5801F1BD3B1F5001F0CD3490811
:1005C0005FEA30004FEA3C0C04F101044FEA445268
:1005D00012F5800F80F09A80BCF1004F08BF5FEAEF
:1005E000500C50F1000041EB045141EA050130BDCF
:1005F0005FEA4C0C404141EB0101013C28BFB1F5E1
:10060000801FE9D291F0000F04BF01460020B1FA2B
:1006100081F308BF2033A3F10B03B3F120020CDAFE
:100620000C3208DD02F1140CC2F10C0201FA0CF0DC
:1006300021FA02F10CE002F11402D8BFC2F1200C41
:1006400001FA02F120FA0CFCDCBF41EA0C019040F7
:10065000E41AA2BF01EB0451294330BD6FEA040440
:100660001F3C1CDA0C340EDC04F11404C4F120022B
:1006700020FA04F001FA02F340EA030021FA04F33D
:1006800045EA030130BDC4F10C04C4F1200220FA94
:1006900002F001FA04F340EA0300294630BD21FAD2
:1006A00004F0294630BD94F0000F83F4801306BF98
:1006B00081F480110134013D4EE77FEA645C18BF8C
:1006C0007FEA655C29D094EA050F08BF90EA020F23
:1006D00005D054EA000C04BF1946104630BD91EA1B
:1006E000030F1EBF0021002030BD5FEA545C05D11E
:1006F0004000494128BF41F0004130BD14F580045D
:100700003CBF01F5801130BD01F0004545F0FE41D0
:1007100041F470014FF0000030BD7FEA645C1ABF05
:10072000194610467FEA655C1CBF0B46024650EA3C
:10073000013406BF52EA033591EA030F41F4002168
:1007400030BD00BF90F0000F04BF0021704730B5EE
:100750004FF4806404F132044FF000054FF00001C3
:1007600050E700BF90F0000F04BF0021704730B584
:100770004FF4806404F1320410F0004548BF404259
:100780004FF000013EE700BF42004FEAE2014FEAAE
:1007900031014FEA02701FBF12F07F4393F07F4F89
:1007A00081F06051704732F07F4208BF704793F08C
:1007B0007F4F04BF41F40021704730B54FF460749F
:1007C00001F0004521F000411CE700BF50EA0102A2
:1007D00008BF704730B54FF000050AE050EA01024B
:1007E00008BF704730B511F0004502D5404261EBBB
:1007F00041014FF4806404F132045FEA915C3FF4FC
:10080000D8AE4FF003025FEADC0C18BF03325FEA98
:10081000DC0C18BF033202EBDC02C2F1200300FA49
:1008200003FC20FA02F001FA03FE40EA0E0021FA6E
:1008300002F11444BDE600BF70B54FF0FF0C4CF45C
:10084000E06C1CEA11541DBF1CEA135594EA0C0F0E
:1008500095EA0C0F00F0DEF82C4481EA030621EA49
:100860004C5123EA4C5350EA013518BF52EA033584
:1008700041F4801143F4801338D0A0FB02CE4FF036
:100880000005E1FB02E506F00042E0FB03E54FF066
:100890000006E1FB03569CF0000F18BF4EF0010E5E
:1008A000A4F1FF04B6F5007F64F5407404D25FEA5A
:1008B0004E0E6D4146EB060642EAC62141EA55510D
:1008C0004FEAC52040EA5E504FEACE2EB4F1FD0C4F
:1008D00088BFBCF5E06F1ED8BEF1004F08BF5FEACD
:1008E000500E50F1000041EB045170BD06F000467F
:1008F00046EA010140EA020081EA0301B4EB5C042C
:10090000C2BFD4EB0C0541EA045170BD41F4801123
:100910004FF0000E013C00F3AB8014F1360FDEBF48
:10092000002001F0004170BDC4F10004203C35DA24
:100930000C341BDC04F11404C4F1200500FA05F3A7
:1009400020FA04F001FA05F240EA020001F0004248
:1009500021F0004110EBD37021FA04F642EB0601BE
:100960005EEA430E08BF20EAD37070BDC4F10C04E8
:10097000C4F1200500FA04F320FA05F001FA04F2AC
:1009800040EA020001F0004110EBD37041F1000198
:100990005EEA430E08BF20EAD37070BDC4F12005A3
:1009A00000FA05F24EEA020E20FA04F301FA05F20B
:1009B00043EA020321FA04F001F0004121FA04F2B3
:1009C00020EA020000EBD3705EEA430E08BF20EA83
:1009D000D37070BD94F0000F0FD101F000464000BD
:1009E00041EB010111F4801F08BF013CF7D041EA3F
:1009F000060195F0000F18BF704703F00046520043
:100A000043EB030313F4801F08BF013DF7D043EA13
:100A10000603704794EA0C0F0CEA135518BF95EAC9
:100A20000C0F0CD050EA410618BF52EA4306D1D150
:100A300081EA030101F000414FF0000070BD50EA6F
:100A4000410606BF1046194652EA430619D094EAF9
:100A50000C0F02D150EA013613D195EA0C0F05D1E3
:100A600052EA03361CBF104619460AD181EA030137
:100A700001F0004141F0FE4141F470014FF00000EF
:100A800070BD41F0FE4141F4780170BD70B54FF08A
:100A9000FF0C4CF4E06C1CEA11541DBF1CEA13550A
:100AA00094EA0C0F95EA0C0F00F0A7F8A4EB0504EC
:100AB00081EA030E52EA03354FEA013100F08880E3
:100AC0004FEA03334FF0805545EA131343EA1263AC
:100AD0004FEA022245EA111545EA10654FEA002661
:100AE0000EF000419D4208BF964244F1FD0404F51A
:100AF000407402D25B084FEA3202B61A65EB030576
:100B00005B084FEA32024FF480104FF4002CB6EB32
:100B1000020E75EB030E22BFB61A754640EA0C00B2
:100B20005B084FEA3202B6EB020E75EB030E22BFF2
:100B3000B61A754640EA5C005B084FEA3202B6EB33
:100B4000020E75EB030E22BFB61A754640EA9C00F2
:100B50005B084FEA3202B6EB020E75EB030E22BFC2
:100B6000B61A754640EADC0055EA060E18D04FEA80
:100B7000051545EA16754FEA06164FEAC30343EA20
:100B800052734FEAC2025FEA1C1CC0D111F4801FED
:100B90000BD141EA00014FF000004FF0004CB6E7E6
:100BA00011F4801F04BF01430020B4F1FD0C88BF85
:100BB000BCF5E06F3FF6AFAEB5EB030C04BFB6EB90
:100BC000020C5FEA500C50F1000041EB045170BD83
:100BD0000EF0004E4EEA113114EB5C04C2BFD4EBB0
:100BE0000C0541EA045170BD41F480114FF0000E34
:100BF000013C90E645EA060E8DE60CEA135594EAB0
:100C00000C0F08BF95EA0C0F3FF43BAF94EA0C0FB2
:100C10000AD150EA01347FF434AF95EA0C0F7FF427
:100C200025AF104619462CE795EA0C0F06D152EA7B
:100C300003353FF4FDAE1046194622E750EA41065F
:100C400018BF52EA43067FF4C5AE50EA41047FF470
:100C50000DAF52EA43057FF4EBAE12E74FF0FF3CD5
:100C600006E000BF4FF0010C02E000BF4FF0010CA6
:100C70004DF804CD4FEA410C7FEA6C5C4FEA430C1F
:100C800018BF7FEA6C5C1BD001B050EA410C0CBF6E
:100C900052EA430C91EA030F02BF90EA020F0020D0
:100CA000704710F1000F91EA030F58BF994208BF37
:100CB00090422CBFD8176FEAE37040F001007047F4
:100CC0004FEA410C7FEA6C5C02D150EA013C07D14B
:100CD0004FEA430C7FEA6C5CD6D152EA033CD3D096
:100CE0005DF8040B704700BF8446104662468C4690
:100CF0001946634600E000BF01B5FFF7B7FF0028C3
:100D000048BF10F1000F01BD4DF808EDFFF7F4FFEB
:100D10000CBF012000205DF808FB00BF4DF808ED76
:100D2000FFF7EAFF34BF012000205DF808FB00BF99
:100D30004DF808EDFFF7E0FF94BF012000205DF8BB
:100D400008FB00BF4DF808EDFFF7CEFF94BF012070
:100D500000205DF808FB00BF4DF808EDFFF7C4FF69
:100D600034BF012000205DF808FB00BF4FEA410CB2
:100D70007FEA6C5C02D150EA013C0AD14FEA430C95
:100D80007FEA6C5C02D152EA033C02D14FF00000D2
:100D900070474FF0010070474FEA410212F5001210
:100DA00015D211D56FF47873B3EB625212D94FEAB2
:100DB000C12343F0004343EA505311F0004F23FA9C
:100DC00002F018BF404270474FF00000704750EAF1
:100DD000013005D111F0004008BF6FF000407047AE
:100DE0004FF00000704700BF4FEA4102B2F1E0430C
:100DF00024BFB3F5001CDCF1FE5C0DD901F0004C02
:100E00004FEAC0024CEA5070B2F1004F40EB830051
:100E100008BF20F00100704711F0804F21D113F17D
:100E20003872BCBF01F00040704741F480114FEAB6
:100E30005252C2F11802C2F1200C10FA0CF320FA3F
:100E400002F018BF40F001004FEAC1234FEAD3235C
:100E500003FA0CFC40EA0C0023FA02F34FEA4303C6
:100E6000CCE77FEA625307D150EA01331EBF4FF04F
:100E7000FE4040F44000704701F0004040F0FE406A
:100E800040F40000704700BF7BB972B90029BEBFB3
:100E900000204FF0004106E008BF00281CBF6FF0A3
:100EA00000414FF0FF3000F0BFB9ADF1080C6DE923
:100EB00004CE002909DB002B1ADB00F04DF8DDF829
:100EC00004E0DDE9022304B07047404261EB4101D8
:100ED000002B1BDB00F040F8DDF804E0DDE9022325
:100EE00004B0404261EB4101524263EB430370475F
:100EF000524263EB430300F02FF8DDF804E0DDE934
:100F0000022304B0404261EB41017047524263EB5F
:100F1000430300F021F8DDF804E0DDE9022304B02A
:100F2000524263EB4303704753B94AB9002908BFE3
:100F300000281CBF4FF0FF314FF0FF3000F074B9B4
:100F4000ADF1080C6DE904CE00F006F8DDF804E020
:100F5000DDE9022304B070472DE9F047089D0446FF
:100F60008E46002B4DD18A42944669D9B2FA82F25C
:100F700052B101FA02F3C2F1200120FA01F10CFA98
:100F800002FC41EA030E94404FEA1C48210CBEFBD0
:100F9000F8F61FFA8CF708FB16E341EA034306FB59
:100FA00007F199420AD91CEB030306F1FF3080F0E8
:100FB0001F81994240F21C81023E63445B1AA4B235
:100FC000B3FBF8F008FB103344EA034400FB07F7D7
:100FD000A7420AD91CEB040400F1FF3380F00A8118
:100FE000A74240F207816444023840EA0640E41B0D
:100FF00000261DB1D4400023C5E900433146BDE8B9
:10100000F0878B4209D9002D00F0EF800026C5E95A
:10101000000130463146BDE8F087B3FA83F6002E72
:101020004AD18B4202D3824200F2F980841A61EBEA
:10103000030301209E46002DE0D0C5E9004EDDE708
:1010400002B9FFDEB2FA82F2002A40F09280A1EBF0
:101050000C014FEA1C471FFA8CFE0126200CB1FB45
:10106000F7F307FB131140EA01410EFB03F088423E
:1010700008D91CEB010103F1FF3802D2884200F2CB
:10108000CB804346091AA4B2B1FBF7F007FB10115D
:1010900044EA01440EFB00FEA64508D91CEB0404FB
:1010A00000F1FF3102D2A64500F2BB800846A4EB56
:1010B0000E0440EA03409CE7C6F12007B34022FA41
:1010C00007FC4CEA030C20FA07F401FA06F31C4370
:1010D000F9404FEA1C4900FA06F3B1FBF9F8200C7D
:1010E0001FFA8CFE09FB181140EA014108FB0EF0C3
:1010F000884202FA06F20BD91CEB010108F1FF3A13
:1011000080F08880884240F28580A8F1020861441E
:10111000091AA4B2B1FBF9F009FB101144EA01412C
:1011200000FB0EFE8E4508D91CEB010100F1FF34D7
:101130006CD28E456AD90238614440EA0840A0FB6F
:101140000294A1EB0E01A142C846A64656D353D045
:101150005DB1B3EB080261EB0E0101FA07F722FA69
:1011600006F3F1401F43C5E9007100263146BDE892
:10117000F087C2F12003D8400CFA02FC21FA03F3F5
:10118000914001434FEA1C471FFA8CFEB3FBF7F076
:1011900007FB10360B0C43EA064300FB0EF69E429B
:1011A00004FA02F408D91CEB030300F1FF382FD234
:1011B0009E422DD9023863449B1B89B2B3FBF7F6DC
:1011C00007FB163341EA034106FB0EF38B4208D9B5
:1011D0001CEB010106F1FF3816D28B4214D9023EF6
:1011E0006144C91A46EA004638E72E46284605E714
:1011F0000646E3E61846F8E64B45A9D2B9EB0208E5
:1012000064EB0C0E0138A3E74646EAE7204694E774
:101210004046D1E7D0467BE7023B614432E73046A7
:1012200009E76444023842E7704700BF70B50D4ECD
:101230000D4D761BB61006D0002455F8043B013442
:101240009847A642F9D1094E094D761B12F0EEFCE3
:10125000B61006D0002455F8043B01349847A64246
:10126000F9D170BD18530108185301082053010823
:1012700018530108830730B548D0541E002A3FD0C8
:10128000CAB2034601E0013C3AD303F8012B9D07A3
:10129000F9D1032C2DD9CDB245EA05250F2C45EA0D
:1012A000054536D9A4F1100222F00F0C03F1200EEF
:1012B000E6444FEA121C03F1100242E9045542E9E8
:1012C000025510327245F8D10CF1010214F00C0FE6
:1012D00003EB021204F00F0C13D0ACF1040323F063
:1012E00003030433134442F8045B9342FBD10CF034
:1012F00003042CB1CAB21C4403F8012B9C42FBD15D
:1013000030BD64461346002CF4D1F9E70346144679
:10131000BFE71A46A446E0E7024B13B1024800F0CB
:1013200005B870470000000039130008002301468B
:101330001A46184600F01EB838B5084B084D5B1B1E
:101340009C1007D0043B1D44013C55F804399847D4
:10135000002CF9D1BDE8384012F06EBC24530108CE
:1013600020530108704700BF704700BF704700BF9F
:10137000704700BF2DE9F047DFF880A00646DAF895
:10138000000098460F469146FFF7F0FF1A4B1B6886
:10139000D3F8484124B365681F2D26DC5EB96B1C69
:1013A0000235DAF80000636044F82570FFF7E0FFCB
:1013B0000020BDE8F08704EB85010123C1F8889087
:1013C000D4F88821AB401A43022EC4F88821C1F812
:1013D0000881E4D1D4F88C211343C4F88C31DEE7C2
:1013E00003F5A674C3F84841D5E7DAF80000FFF723
:1013F000BFFF4FF0FF30DCE79C3E010830040020C7
:1014000080B500AF00F0AAF90AF098FD0AF0ACFD33
:101410000AF0B0FE184B4FF448725A63164B4FF463
:1014200048729A63144B4FF44872DA63124B4FF4CC
:1014300048721A6440F6B83001F046FB0AF008FE24
:101440000AF01EFB0D4BD3ED007A0D4B93ED007AA5
:101450000C4BD3ED006A002200210020B0EE661A8A
:10146000F0EE470AB0EE670A01F068F800F00CF8F9
:1014700001F078F9E2E700BF00080040B411002055
:10148000B8110020BC11002080B582B000AF104B15
:101490001B78002B13D00F490F480CF083FB7860AA
:1014A0007B68002B0FD07B6802337B607B681B78E6
:1014B000102B04D17B680133184600F00FF8044B61
:1014C00000221A7000E000BF0837BD4680BD00BF93
:1014D0004C110020483C01084C0D002080B58EB016
:1014E00000AF7860002387F837307B683B633B6B45
:1014F00001333B633B6B1B88DAB297F837301344F8
:1015000087F837303B6B1B881846FFF72BF94FF0F5
:1015100000028E4BFFF7BAFA02460B4610461946F8
:10152000FFF762FC0346FB623B6B02333B633B6BA2
:101530001B88DAB297F83730134487F837303B6BA3
:101540001B881846FFF70EF94FF000027F4BFFF79C
:101550009DFA02460B4610461946FFF745FC034626
:10156000BB623B6B02333B633B6B1B88DAB297F881
:101570003730134487F837303B6B1B881846FFF72A
:10158000F1F84FF00002714BFFF780FA02460B466C
:1015900010461946FFF728FC03467B623B6B02337B
:1015A0003B633B6B1B88DAB297F83730134487F8FC
:1015B00037303B6B1B881846FFF7D4F84FF000021A
:1015C000624BFFF763FA02460B4610461946FFF7D7
:1015D0000BFC03463B623B6B02333B633B6B1B885C
:1015E000DAB297F83730134487F837303B6B1B88F3
:1015F0001846FFF7B7F84FF00002544BFFF746FAD2
:1016000002460B4610461946FFF7EEFB0346FB6108
:101610003B6B02333B633B6B1B88DAB297F8373086
:10162000134487F837303B6B1B881846FFF79AF84E
:101630004FF00002454BFFF729FA02460B461046D1
:101640001946FFF7D1FB0346BB613B6B02333B639B
:101650003B6B1B88DAB297F83730134487F8373082
:101660003B6B1B881846FFF77DF84FF00002374BA5
:10167000FFF70CFA02460B4610461946FFF7B4FB7B
:1016800003467B613B6B02333B633B6B1B88DAB2E7
:1016900097F83730134487F837303B6B1B88184670
:1016A000FFF760F84FF00002284BFFF7EFF9024612
:1016B0000B4610461946FFF797FB03463B613B6B11
:1016C00002333B633B6B1B88DAB297F83730134425
:1016D00087F837303B6B1B881846FFF743F84FF00D
:1016E00000021A4BFFF7D2F902460B461046194684
:1016F000FFF77AFB0346FB603B6B02333B633B6BBC
:101700001B78FB72FA7A97F837309A421AD1104A4E
:10171000FB6A93600E4ABB6AD3600D4A7B6A136111
:101720000C4A3B6A93600B4AFB69D360094ABB6968
:101730001361094A7B699360074A3B69D360064A93
:10174000FB68136100BF3837BD4680BD00005940BB
:101750003804002080040020C804002080B500AFB9
:1017600001F040F900F052F800F010FA00F0D8F95A
:1017700000F0B4F800F0E0F800F076F900F0A6F917
:101780004FF480620449054803F08FFC00F008F82C
:1017900000F02EFB00BF80BD4C0D0020500B002040
:1017A00080B500AF174B184A1A60164B4FF482727F
:1017B0005A60144B00229A60124B0022DA60114BDF
:1017C00000221A610F4B00225A610E4B4FF4007237
:1017D0009A610C4B0822DA610A4B00221A62094B0B
:1017E00000225A62074B00229A62064B0A22DA62F2
:1017F000044806F049FF0346002B01D000F056FADA
:1018000000BF80BDEC0C00200038004080B594B0D3
:1018100000AF07F12003302200211846FFF72AFD10
:1018200007F10C0300221A605A609A60DA601A61AC
:101830000023BB60274B1B6C264A43F08053136484
:10184000244B1B6C03F08053BB60BB6800237B60A0
:10185000214B1B68204A43F4804313601E4B1B68D6
:1018600003F480437B607B6801233B624FF4803349
:101870007B620223BB634FF48003FB6305233B645D
:1018800096237B640423BB640423FB6407F12003D9
:10189000184601F04FFA0346002B01D000F006FA7B
:1018A0000F23FB6002233B6100237B614FF48053D5
:1018B000BB610023FB6107F10C030121184601F015
:1018C000B1FC0346002B01D000F0F0F900BF503707
:1018D000BD4680BD003802400070004080B500AFBA
:1018E000124B134A1A60114B124A5A600F4B0022D6
:1018F0009A600E4B0022DA600C4B4FF480421A6162
:101900000A4B00225A61094B00229A61074B0022C0
:10191000DA61064B00221A62044804F059FB0346C0
:10192000002B01D000F0C2F900BF80BD980C002050
:1019300000540040801A060080B58EB000AF07F159
:10194000280300221A605A609A60DA6007F12003C7
:1019500000221A605A603B1D00221A605A609A6089
:10196000DA601A615A619A613D4B3E4A1A603C4BFB
:101970004F225A603A4B00229A60394B40F2CF72A4
:10198000DA60374B00221A61354B00229A613448E5
:1019900002F02DFC0346002B01D000F087F94FF434
:1019A0008053BB6207F1280319462D4802F04EFE12
:1019B0000346002B01D000F079F9294802F066FCBB
:1019C0000346002B01D000F071F900233B62002395
:1019D0007B6207F120031946214803F00BFA034606
:1019E000002B01D000F062F960237B600023BB6014
:1019F0000023FB6000237B613B1D00221946184831
:101A000002F066FD0346002B01D000F04FF93B1DAC
:101A100004221946124802F05BFD0346002B01D058
:101A200000F044F93B1D082219460D4802F050FD14
:101A30000346002B01D000F039F93B1D0C2219465A
:101A4000074802F045FD0346002B01D000F02EF9B7
:101A5000034800F05FFB00BF3837BD4680BD00BFC4
:101A6000080B00200008004080B500AF154B164A57
:101A70001A60144B4FF4E1325A60124B00229A6004
:101A8000104B0022DA600F4B00221A610D4B0C2222
:101A90005A610C4B00229A610A4B0022DA61094814
:101AA00003F024FA0346002B01D000F0FFF8054BA9
:101AB0001B68DA68034B1B6842F01002DA6000BF53
:101AC00080BD00BF500B00200010014080B500AF6A
:101AD000114B124A1A60104B4FF4E1325A600E4B10
:101AE00000229A600C4B0022DA600B4B00221A6134
:101AF000094B0C225A61084B00229A61064B0022C6
:101B0000DA61054803F0F2F90346002B01D000F03A
:101B1000CDF800BF80BD00BF940B00200044004002
:101B200080B582B000AF00237B60174B1B6B164A59
:101B300043F400131363144B1B6B03F400137B601B
:101B40007B6800233B60104B1B6B0F4A43F4800300
:101B500013630D4B1B6B03F480033B603B68002257
:101B60000021102001F0AFF8102001F0C8F8002289
:101B700000213A2001F0A7F83A2001F0C0F800BF98
:101B80000837BD4680BD00BF0038024080B58AB02E
:101B900000AF07F1140300221A605A609A60DA60FD
:101BA0001A6100233B613D4B1B6B3C4A43F0010330
:101BB00013633A4B1B6B03F001033B613B6900234A
:101BC000FB60364B1B6B354A43F002031363334B08
:101BD0001B6B03F00203FB60FB680023BB602F4B11
:101BE0001B6B2E4A43F0040313632C4B1B6B03F057
:101BF0000403BB60BB6800237B60284B1B6B274A38
:101C000043F008031363254B1B6B03F008037B6051
:101C10007B6800233B60214B1B6B204A43F0800311
:101C200013631E4B1B6B03F080033B603B68B023C8
:101C30007B610123BB610023FB6100233B6207F151
:101C400014031946164802F01DF90122B021144868
:101C500002F0B4FA01223021124802F0AFFA012357
:101C60007B610023BB610123FB6107F1140319466B
:101C70000D4802F007F930237B610123BB6100238B
:101C8000FB6100233B6207F114031946054802F08B
:101C9000F9F800BF2837BD4680BD00BF00380240BC
:101CA000000C0240000002400008024080B400AF77
:101CB00072B600BFFEE7000080B582B000AF78606A
:101CC000391D4FF6FF730122034803F05CF97B686E
:101CD00018460837BD4680BD940B002080B582B001
:101CE00000AF224B1B68224A934231D11F4B1B6825
:101CF0001B6803F01003102B2AD11C4803F005FACF
:101D000000237B60194B1B681B687B60174B1B68AB
:101D10005B687B607B68174B1B685B68C3F58063FF
:101D20001A46154B1A60154B01221A704FF4806247
:101D300013490E4803F0B9F9124B04221249184610
:101D40000BF096FD0346002B02D1104B01221A70B6
:101D50000F4B1B78002B02D109480BF03DFD0348C7
:101D600003F02EFA00BF0837BD4680BD500B00209F
:101D700000100140D80B0020440D0020480D002029
:101D80004C0D00204E0D00204C3C01084C11002051
:101D9000DA11002080B500AF024801F0FBFD00BF62
:101DA00080BD00BFD80B002080B500AF024803F013
:101DB00007FA00BF80BD00BF940B002080B500AFC4
:101DC000024801F0E7FD00BF80BD00BF380C0020D5
:101DD00080B500AF00F058FE00BF80BD80B500AFF9
:101DE000024804F059FD00BF80BD00BF980C0020E0
:101DF00080B500AF0021084802F0A2FA042106488D
:101E000002F09EFA0821044802F09AFA0C210248D6
:101E100002F096FA00BF80BD080B002080B586B0A6
:101E200000AF7860144A154BD31A7B617B693B6124
:101E3000134B1B68002B02D1114B124A1A60104B36
:101E40001A687B6813443A699A4207D20BF03EFC49
:101E500003460C221A604FF0FF3309E0084B1B6861
:101E6000FB60074B1A687B681344054A1360FB68E4
:101E700018461837BD4680BD00000220000400004F
:101E8000541100208812002080B483B000AF786025
:101E9000396000BF0C37BD465DF8047B7047000019
:101EA00080B58AB000AF786007F1140300221A6091
:101EB0005A609A60DA601A617B681B681C4A934218
:101EC00031D100233B611B4B1B6B1A4A43F00203C9
:101ED0001363184B1B6B03F002033B613B69C02388
:101EE0007B611223BB6103233B6204237B6207F106
:101EF00014031946104801F0C5FF0023FB600D4B89
:101F00001B6C0C4A43F4001313640A4B1B6C03F460
:101F10000013FB60FB68002200211F2000F0D3FEAD
:101F20001F2000F0ECFE00BF2837BD4680BD00BF7B
:101F300000540040003802400004024080B58AB0DE
:101F400000AF786007F1140300221A605A609A60AB
:101F5000DA601A617B681B682C4A934252D10023D5
:101F60003B612B4B1B6C2A4A43F480431364284B80
:101F70001B6C03F480433B613B690023FB60244BF3
:101F80001B6B234A43F004031363214B1B6B03F0C9
:101F90000403FB60FB680023BB601D4B1B6B1C4AEA
:101FA00043F0020313631A4B1B6B03F00203BB6085
:101FB000BB680C237B610223BB610023FB6103230D
:101FC0003B6205237B6207F114031946114801F0B7
:101FD00059FF4FF480637B610223BB610023FB61E7
:101FE00003233B6205237B6207F1140319460A4869
:101FF00001F048FF00220021242000F064FE24208C
:1020000000F07DFE00BF2837BD4680BD003800408F
:1020100000380240000802400004024080B483B04F
:1020200000AF00237B60104B5B6C0F4A43F480438E
:1020300053640D4B5B6C03F480437B607B6800232F
:102040003B60094B1B6C084A43F080531364064BFA
:102050001B6C03F080533B603B6800BF0C37BD46F0
:102060005DF8047B704700BF0038024080B586B041
:1020700000AF78607B681B68224A93420ED1002330
:102080007B61214B1B6C204A43F0020313641E4BFF
:102090001B6C03F002037B617B692EE07B681B688D
:1020A0001A4A93420ED100233B61174B1B6C164A10
:1020B00043F004031364144B1B6C03F004033B61F3
:1020C0003B691AE07B681B68114A934215D10023D3
:1020D000FB600D4B1B6C0C4A43F0080313640A4B66
:1020E0001B6C03F00803FB60FB6800220021322018
:1020F00000F0E9FD322000F002FE00BF1837BD46B7
:1021000080BD00BF000400400038024000080040CD
:10211000000C004080B58AB000AF786007F114036E
:1021200000221A605A609A60DA601A617B681B6844
:10213000334A93423CD100233B61324B1B6B314A03
:1021400043F0010313632F4B1B6B03F001033B614F
:102150003B690023FB602B4B1B6B2A4A43F00203B5
:102160001363284B1B6B03F00203FB60FB68C02367
:102170007B610223BB610023FB6100233B620223DE
:102180007B6207F1140319461F4801F07BFE03230D
:102190007B610223BB610023FB6100233B620223BE
:1021A0007B6207F114031946184801F06BFE23E027
:1021B0007B681B68164A93421ED10023BB60114BFB
:1021C0001B6B104A43F0080313630E4B1B6B03F0A9
:1021D0000803BB60BB684FF470437B610223BB61A3
:1021E0000023FB6100233B6202237B6207F114039F
:1021F0001946084801F046FE00BF2837BD4680BD9D
:102200000004004000380240000002400004024088
:1022100000080040000C024080B58CB000AF786030
:1022200007F11C0300221A605A609A60DA601A6192
:102230007B681B68684A934263D10023BB61674B8C
:102240005B6C664A43F010035364644B5B6C03F0B1
:102250001003BB61BB6900237B61604B1B6B5F4A52
:1022600043F0010313635D4B1B6B03F001037B61C0
:102270007B694FF4C063FB6102233B6200237B62F6
:102280000323BB620723FB6207F11C031946544872
:1022900001F0F8FD534B544A1A60524B4FF0006264
:1022A0005A60504B00229A604E4B0022DA604D4B30
:1022B0004FF480621A614B4B00225A61494B002255
:1022C0009A61484B0022DA61464B00221A62454B64
:1022D00000225A62434801F0C5F90346002B01D0A1
:1022E000FFF7E4FC7B683F4A9A633E4A7B6893634E
:1022F00000220021252000F0E6FC252000F0FFFC54
:1023000066E07B681B68394A934261D100233B61D8
:10231000324B1B6C314A43F4003313642F4B1B6C5C
:1023200003F400333B613B690023FB602B4B1B6BC9
:102330002A4A43F001031363284B1B6B03F001038C
:10234000FB60FB680C23FB6102233B6200237B6282
:102350000323BB620723FB6207F11C0319462048D5
:1023600001F090FD224B234A1A60214B4FF000628E
:102370005A601F4B00229A601D4B0022DA601C4BF2
:102380004FF480621A611A4B00225A61184B0022E6
:102390009A61174B0022DA61154B00221A62144B26
:1023A00000225A62124801F05DF90346002B01D069
:1023B000FFF77CFC7B680E4A9A630D4A7B68936347
:1023C00000220021262000F07EFC262000F097FC51
:1023D00000BF3037BD4680BD0010014000380240CC
:1023E00000000240D80B002040640240004400403E
:1023F000380C00208860024080B400AF01231846EA
:10240000BD465DF8047B704780B582B000AF786050
:1024100039600BF05BF9034616221A604FF0FF3368
:1024200018460837BD4680BD80B582B000AF7860E1
:102430004FF0FF317868FFF7E7FFFEE780B586B021
:1024400000AFF860B9607A6000237B610AE0AFF307
:1024500000800146BB685A1CBA60CAB21A707B6918
:1024600001337B617A697B689A42F0DB7B681846AE
:102470001837BD4680BD80B586B000AFF860B96042
:102480007A6000237B6109E0BB685A1CBA601B7844
:102490001846FFF711FC7B6901337B617A697B6821
:1024A0009A42F1DB7B6818461837BD4680BD80B480
:1024B00083B000AF78604FF0FF3318460C37BD464D
:1024C0005DF8047B704780B483B000AF78603960FA
:1024D0003B684FF400525A60002318460C37BD4643
:1024E0005DF8047B704780B483B000AF786001234F
:1024F00018460C37BD465DF8047B704780B485B044
:1025000000AFF860B9607A60002318461437BD4602
:102510005DF8047B7047000080B400AF064BD3F831
:102520008830054A43F47003C2F8883000BFBD46C6
:102530005DF8047B704700BF00ED00E080B58AB015
:1025400000AF87ED050AC7ED040A87ED031AB860EE
:102550000B46FB711346BB71002387F82530BB681F
:10256000FB6197F825305A1C87F825201A467B4BCB
:10257000AA21995497F825305A1C87F825201A4625
:10258000764BAA21995497F825305A1C87F82520B4
:102590001A46724B0121995497F825305A1C87F836
:1025A00025201A466D4B00219954D7ED057A9FEDF1
:1025B0006C7A67EE877AFDEEE77A17EE903A1BB2F7
:1025C0007B8407F12203013397F82520511C87F8FB
:1025D00025101978614B995407F1220297F825309C
:1025E000591C87F82510194612785C4B5A54D7EDC0
:1025F000047A9FED5B7A67EE877AFDEEE77A17EE55
:10260000903A1BB27B8407F12203013397F825200F
:10261000511C87F825101978504B995407F1220264
:1026200097F82530591C87F82510194612784B4B1E
:102630005A54D7ED037A9FED4A7A67EE877AFDEE1A
:10264000E77A17EE903A1BB27B8407F1220301333D
:1026500097F82520511C87F8251019783F4B99547D
:1026600007F1220297F82530591C87F825101946E2
:1026700012783A4B5A5407F11C03033397F825207C
:10268000511C87F825101978344B995407F11C0315
:10269000023397F82520511C87F8251019782F4B05
:1026A000995407F11C03013397F82520511C87F832
:1026B00025101978294B995407F11C0297F82530F9
:1026C000591C87F8251019461278244B5A5497F84C
:1026D00025305A1C87F825201946204AFB79535487
:1026E00097F825305A1C87F8252019461B4ABB79D4
:1026F000535497F82530043BDAB2184BDA700023B4
:1027000087F82730002387F826300DE097F8263029
:10271000124AD25C97F82730134487F8273097F88D
:102720002630013387F8263097F8262097F8253091
:102730009A42EBD397F825305A1C87F82520194682
:10274000064A97F82730535497F82530194603481E
:1027500009F076FD00BF2837BD4680BD5811002026
:102760000000C84280B582B000AF9FED2F1ADFEDA8
:102770002E0A9FED2D0A00F067F807EE900AF8EE9A
:10278000E77A9FED2A1ADFED2A0AB0EE670A00F019
:10279000FFF8F0EE407AFDEEE77A17EE903A7B60B4
:1027A000244BD3ED007AF0EEE77A9FED237AF4EE36
:1027B000C77AF1EE10FA03DD204B4FF448721A602D
:1027C0001E4B1B68B3F5487F19DD1C4B1A687B68EC
:1027D000D31ADA1E1A4B5A63184B1A687B681A44CC
:1027E000174B9A63154B1A687B681A44144BDA63CB
:1027F000124B1A687B68D21A114B1A640FE0104B07
:102800004FF448725A630E4B4FF448729A630C4B64
:102810004FF44872DA630A4B4FF448721A6400BFEF
:102820000837BD4680BD00BF00000000000048C35F
:1028300000004843B8110020000048425011002019
:10284000000800400000000080B584B000AF87EDB4
:10285000030AC7ED020A87ED011A4B4B9B6A93ED01
:10286000007AD7ED027A77EE677A474BC3ED007AAC
:10287000454BD3ED007AF0EEE77AB7EE007AF4EE4E
:10288000C77AF1EE10FA6FDD3F4B1B683E4AD36208
:102890003D4B93ED0C7A3C4BD3ED007A77EE277AE3
:1028A000394BC3ED0C7A384BD3ED0C7A364B93EDA4
:1028B0000E7A354BD3ED0F6AB0EE661AF0EE470A8A
:1028C000B0EE670A00F064F8F0EE407A2E4BC3EDEC
:1028D0000C7A2E4BB3F9023007EE903AF8EEE77A15
:1028E00017EE900AFDF750FF25A3D3E90023FDF76B
:1028F000A3FF02460B4610461946FEF775FA03463B
:10290000214A5363204B93ED027A1F4BD3ED0B7A90
:1029100027EE277A1C4BD3ED036A1B4BD3ED0C7AC1
:1029200066EEA77A37EE277A174BD3ED046A164B7B
:10293000D3ED0D7A66EEA77A77EE277A124BC3EDC8
:10294000107A114B9B6A1B680F4A53620E4B1B682F
:102950000D4A53600C4B1B6C0B4A53640A4BD3ED6E
:10296000107AFDEEE77A04E0074BD3ED117AFDEE25
:10297000E77A17EE903A18461037BD4680BD00BF83
:10298000C79DD2C1FA3F9F3F80040020A0110020C4
:1029900080B485B000AF87ED030AC7ED020A87ED6A
:1029A000011A97ED037AD7ED027AB4EEE77AF1EEE9
:1029B00010FA02DDBB68FB600AE097ED037AD7ED01
:1029C000017AB4EEE77AF1EE10FA01D57B68FB608C
:1029D000FB6807EE903AB0EE670A1437BD465DF823
:1029E000047B704780B500AF0E4B1B680D4A43F463
:1029F000007313600B4B1B680A4A43F48063136037
:102A0000084B1B68074A43F480731360032000F0EF
:102A10004FF9002000F008F8FFF700FB00231846EC
:102A200080BD00BF003C024080B582B000AF78603E
:102A3000124B1A68124B1B7819464FF47A73B3FB8A
:102A4000F1F3B2FBF3F3184600F067F90346002BED
:102A500001D001230EE07B680F2B0AD80022796891
:102A60004FF0FF3000F02FF9064A7B681360002317
:102A700000E0012318460837BD4680BD340400201D
:102A8000140500201005002080B400AF064B1B7811
:102A90001A46064B1B681344044A136000BFBD4628
:102AA0005DF8047B704700BF140500208C110020E6
:102AB00080B400AF034B1B681846BD465DF8047B2D
:102AC000704700BF8C11002080B584B000AF7860E3
:102AD000FFF7EEFFB8607B68FB60FB68B3F1FF3F78
:102AE00005D00A4B1B781A46FB681344FB6000BFF5
:102AF000FFF7DEFF0246BB68D31AFA689A42F7D89E
:102B000000BF00BF1037BD4680BD00BF14050020C8
:102B100080B485B000AF78607B6803F00703FB608A
:102B20000C4BDB68BB60BA684FF6FF031340BB6019
:102B3000FB681A02BB68134343F0BF6343F40033DE
:102B4000BB60044ABB68D36000BF1437BD465DF864
:102B5000047B704700ED00E080B400AF044BDB68FD
:102B60001B0A03F007031846BD465DF8047B704757
:102B700000ED00E080B483B000AF0346FB7197F92D
:102B80000730002B0BDBFB7903F01F02074997F995
:102B900007305B09012000FA02F241F8232000BF50
:102BA0000C37BD465DF8047B704700BF00E100E0D4
:102BB00080B483B000AF03463960FB7197F90730EA
:102BC000002B0ADB3B68DAB20C4997F90730120197
:102BD000D2B20B4483F800230AE03B68DAB208491A
:102BE000FB7903F00F03043B1201D2B20B441A76B7
:102BF00000BF0C37BD465DF8047B704700E100E084
:102C000000ED00E080B489B000AFF860B9607A6090
:102C1000FB6803F00703FB61FB69C3F10703042BA7
:102C200028BF0423BB61FB690433062B02D9FB696F
:102C3000033B00E000237B614FF0FF32BB6902FAE7
:102C400003F3DA43BB681A407B699A404FF0FF31C7
:102C50007B6901FA03F3D9437B680B4013431846A1
:102C60002437BD465DF8047B7047000080B582B014
:102C700000AF78607B68013BB3F1807F01D3012313
:102C80000FE00A4A7B68013B53600F214FF0FF3091
:102C9000FFF78EFF054B00229A60044B07221A6053
:102CA000002318460837BD4680BD00BF10E000E095
:102CB00080B582B000AF78607868FFF729FF00BF69
:102CC0000837BD4680BD80B586B000AF0346B96009
:102CD0007A60FB7300237B61FFF73EFF78617A68BF
:102CE000B9687869FFF78EFF024697F90F301146F1
:102CF0001846FFF75DFF00BF1837BD4680BD80B5A1
:102D000082B000AF0346FB7197F907301846FFF712
:102D100031FF00BF0837BD4680BD80B582B000AF2F
:102D200078607868FFF7A2FF034618460837BD466B
:102D300080BD000080B586B000AF78607B68002B56
:102D400001D1012367E27B681B6803F00103002BBC
:102D500075D0884B9B6803F00C03042B0CD0854B7B
:102D60009B6803F00C03082B12D1824B5B6803F4C1
:102D70008003B3F5800F0BD17E4B1B6803F4003347
:102D8000002B5BD07B685B68002B57D1012342E2AC
:102D90007B685B68B3F5803F06D1764B1B68754A4C
:102DA00043F4803313601DE07B685B68B3F5A02FAC
:102DB0000CD1704B1B686F4A43F4802313606D4B3A
:102DC0001B686C4A43F4803313600BE0694B1B684B
:102DD000684A23F480331360664B1B68654A23F40A
:102DE000802313607B685B68002B13D0FFF760FEC5
:102DF000386108E0FFF75CFE02463B69D31A642B9A
:102E000001D9032307E25B4B1B6803F40033002B5B
:102E1000F0D014E0FFF74CFE386108E0FFF748FE01
:102E200002463B69D31A642B01D90323F3E1514BCA
:102E30001B6803F40033002BF0D100E000BF7B6877
:102E40001B6803F00203002B63D04A4B9B6803F01E
:102E50000C03002B0BD0474B9B6803F00C03082B93
:102E60001CD1444B5B6803F48003002B16D1414B0B
:102E70001B6803F00203002B05D07B68DB68012B85
:102E800001D00123C7E13B4B1B6823F0F8027B68AC
:102E90001B69DB00374913430B603AE07B68DB6852
:102EA000002B20D0344B01221A60FFF701FE38615D
:102EB00008E0FFF7FDFD02463B69D31A022B01D95A
:102EC0000323A8E12B4B1B6803F00203002BF0D077
:102ED000284B1B6823F0F8027B681B69DB0025493F
:102EE00013430B6015E0244B00221A60FFF7E0FD4E
:102EF000386108E0FFF7DCFD02463B69D31A022B7C
:102F000001D9032387E11B4B1B6803F00203002B4D
:102F1000F0D17B681B6803F00803002B36D07B6878
:102F20005B69002B16D0154B01221A60FFF7C0FD1C
:102F3000386108E0FFF7BCFD02463B69D31A022B5B
:102F400001D9032367E10B4B5B6F03F00203002BF6
:102F5000F0D01BE0094B00221A60FFF7A9FD386191
:102F60000EE0FFF7A5FD02463B69D31A022B07D9F5
:102F7000032350E10038024000004742800E4742E0
:102F8000884B5B6F03F00203002BEAD17B681B6860
:102F900003F00403002B00F097800023FB75814BA6
:102FA0001B6C03F08053002B0FD10023BB607D4BC3
:102FB0001B6C7C4A43F0805313647A4B1B6C03F008
:102FC0008053BB60BB680123FB75774B1B6803F420
:102FD0008073002B18D1744B1B68734A43F48073C1
:102FE0001360FFF765FD386108E0FFF761FD0246F9
:102FF0003B69D31A022B01D903230CE16A4B1B68EE
:1030000003F48073002BF0D07B689B68012B06D102
:10301000644B1B6F634A43F0010313671CE07B683A
:103020009B68052B0CD15F4B1B6F5E4A43F004037A
:1030300013675C4B1B6F5B4A43F0010313670BE0A4
:10304000584B1B6F574A23F001031367554B1B6FF7
:10305000544A23F0040313677B689B68002B15D048
:10306000FFF726FD38610AE0FFF722FD02463B69C3
:10307000D31A41F28832934201D90323CBE0494B62
:103080001B6F03F00203002BEED014E0FFF710FDDE
:1030900038610AE0FFF70CFD02463B69D31A41F2A2
:1030A0008832934201D90323B5E03E4B1B6F03F0F6
:1030B0000203002BEED1FB7D012B05D1394B1B6C9C
:1030C000384A23F0805313647B689B69002B00F01F
:1030D000A180344B9B6803F00C03082B5CD07B6809
:1030E0009B69022B41D1314B00221A60FFF7E0FCB3
:1030F000386108E0FFF7DCFC02463B69D31A022B7B
:1031000001D9032387E0274B1B6803F00073002BD2
:10311000F0D17B68DA697B681B6A1A437B685B6A5B
:103120009B011A437B689B6A5B08013B1B041A43A3
:103130007B68DB6A1B061B4913434B601B4B012258
:103140001A60FFF7B5FC386108E0FFF7B1FC0246F2
:103150003B69D31A022B01D903235CE0114B1B6896
:1031600003F00073002BF0D054E0104B00221A60E3
:10317000FFF79EFC386108E0FFF79AFC02463B69C6
:10318000D31A022B01D9032345E0064B1B6803F039
:103190000073002BF0D13DE07B689B69012B07D1C8
:1031A000012338E0003802400070004060004742D0
:1031B0001B4B5B68FB607B689B69012B28D0FB681D
:1031C00003F480027B68DB699A4221D1FB6803F03B
:1031D0003F027B681B6A9A421AD1FA6847F6C073AD
:1031E00013407A68526A9201934211D1FB6803F44A
:1031F00040327B689B6A5B08013B1B049A4207D103
:10320000FB6803F070627B68DB6A1B069A4201D0A0
:10321000012300E0002318461837BD4680BD00BFDB
:103220000038024080B584B000AF786039607B68B8
:10323000002B01D10123CCE0684B1B6803F007038E
:103240003A689A420CD9654B3A68D2B21A70634B0D
:103250001B6803F007033A689A4201D00123B8E0E3
:103260007B681B6803F00203002B20D07B681B687F
:1032700003F00403002B05D0594B9B68584A43F4D4
:10328000E05393607B681B6803F00803002B05D0B4
:10329000534B9B68524A43F460439360504B9B6886
:1032A00023F0F0027B689B684D4913438B607B6879
:1032B0001B6803F00103002B44D07B685B68012B83
:1032C00007D1474B1B6803F40033002B19D10123AE
:1032D0007FE07B685B68022B03D07B685B68032B15
:1032E00007D13F4B1B6803F00073002B09D101236A
:1032F0006FE03B4B1B6803F00203002B01D101235D
:1033000067E0374B9B6823F003027B685B683449B6
:1033100013438B60FFF7CCFBF8600AE0FFF7C8FBB4
:103320000246FB68D31A41F28832934201D9032343
:103330004FE02B4B9B6803F00C027B685B689B00A3
:103340009A42EBD1254B1B6803F007033A689A4277
:103350000CD2224B3A68D2B21A70204B1B6803F091
:1033600007033A689A4201D0012332E07B681B6868
:1033700003F00403002B08D0194B9B6823F4E052A0
:103380007B68DB68164913438B607B681B6803F01E
:103390000803002B09D0124B9B6823F460427B6822
:1033A0001B69DB000E4913438B6000F021F80246D5
:1033B0000B4B9B681B0903F00F030A49CB5C22FAF5
:1033C00003F3094A1360094B1B681846FFF72CFBEF
:1033D000002318461037BD4680BD00BF003C0240A8
:1033E00000380240A03E01083404002010050020EF
:1033F0002DE9B04F94B000AF00237B640023FB6441
:1034000000233B640023BB64794B9B6803F00C03EF
:10341000082B0DD0082B00F2E180002B02D0042BEA
:1034200003D0DBE0734BBB64DBE0734BBB64D8E0E1
:103430006F4B5B6803F03F037B646D4B5B6803F489
:103440008003002B63D06A4B5B689B090022BB633F
:10345000FA63BB6BC3F308033B6300237B63D7E9C9
:103460000C4522462B464FF000004FF00001590159
:1034700041EAD261500102460B462146511A396198
:10348000294663EB01037B614FF000024FF000031C
:10349000D7E904AB59468B01514643EA9163514643
:1034A0008A015146B2EB0108594663EB01094FF01E
:1034B00000024FF000034FEAC90343EA58734FEA92
:1034C000C80290469946234618EB0303BB602B467F
:1034D00049EB0303FB604FF000024FF00003D7E914
:1034E000024529464B02214643EAD15321464A026E
:1034F000104619467B6C0022BB62FA62D7E90A23A8
:10350000FDF712FD02460B461346FB6458E0384BAC
:103510005B689B09002218461146C0F308033B6212
:1035200000237B62D7E9088942464B464FF00000F2
:103530004FF00001590141EAD261500102460B46A9
:103540004146B2EB010A494663EB010B4FF0000222
:103550004FF000034FEA8B1343EA9A634FEA8A1253
:10356000B2EB0A0463EB0B054FF000024FF00003CF
:10357000EB0043EA5473E20014461D464346E31849
:103580003B604B4645EB03037B604FF000024FF07E
:103590000003D7E9004529468B02214643EA9153AF
:1035A00021468A02104619467B6C0022BB61FA61F3
:1035B000D7E90623FDF7B8FC02460B461346FB6429
:1035C0000B4B5B681B0C03F0030301335B003B6494
:1035D000FA6C3B6CB2FBF3F3BB6402E0054BBB64DB
:1035E00000BFBB6C18465037BD46BDE8B08F00BF6A
:1035F000003802400024F40000127A0080B400AFCA
:10360000034B1B681846BD465DF8047B704700BF3E
:103610003404002080B500AFFFF7F0FF0246054BF1
:103620009B689B0A03F007030349CB5C22FA03F370
:10363000184680BD00380240B03E010880B500AF9A
:10364000FFF7DCFF0246054B9B685B0B03F00703AB
:103650000349CB5C22FA03F3184680BD00380240D0
:10366000B03E010880B586B000AF786000237B6172
:10367000FFF71EFA38617B68002B01D1012399E026
:103680007B68002283F834207B68022283F835208F
:103690007B681B681A687B681B6822F001021A604D
:1036A0000FE0FFF705FA02463B69D31A052B08D94C
:1036B0007B6820225A657B68032283F83520032328
:1036C00078E07B681B681B6803F00103002BE8D1DE
:1036D0007B681B681B687B617A69384B13407B6190
:1036E0007B685A687B689B681A437B68DB681A436F
:1036F0007B681B691A437B685B691A437B689B691B
:103700001A437B68DB691A437B681B6A13437A6937
:1037100013437B617B685B6A042B07D17B68DA6AA1
:103720007B681B6B13437A6913437B617B681B685F
:103730007A691A607B681B685B697B617B6923F02F
:1037400007037B617B685B6A7A6913437B617B68F3
:103750005B6A042B17D17B689B6A7A6913437B6190
:103760007B68DB6A002B0ED0786800F00FFB034605
:10377000002B08D07B6840225A657B68012283F8C1
:103780003520012316E07B681B687A695A617868E6
:1037900000F0C6FA0346FB607B68DB6D3F229A406F
:1037A000FB689A607B6800225A657B68012283F877
:1037B0003520002318461837BD4680BD3F8010F0E5
:1037C00080B586B000AFF860B9607A603B600023D6
:1037D000FB75FB689B6D3B61FB6893F83430012BF4
:1037E00001D1022340E0FB68012283F83420FB680A
:1037F00093F83530DBB2012B2FD1FB68022283F81E
:103800003520FB6800225A653B687A68B968F86819
:1038100000F058FAFB68DB6D3F229A403B699A60E2
:10382000FB681B681A68FB681B6842F016021A6086
:10383000FB681B6C002B07D0FB681B681A68FB68D1
:103840001B6842F008021A60FB681B681A68FB6874
:103850001B6842F001021A6005E0FB68002283F851
:1038600034200223FB75FB7D18461837BD4680BD0A
:1038700080B584B000AF78607B689B6DFB60FFF71C
:1038800017F9B8607B6893F83530DBB2022B08D0AB
:103890007B6880225A657B68002283F834200123EC
:1038A00052E07B681B681A687B681B6822F016026E
:1038B0001A607B681B685A697B681B6822F080026B
:1038C0005A617B681B6C002B03D17B689B6C002BBF
:1038D00007D07B681B681A687B681B6822F00802A7
:1038E0001A607B681B681A687B681B6822F00102FB
:1038F0001A6013E0FFF7DCF80246BB68D31A052B09
:103900000CD97B6820225A657B68002283F834201A
:103910007B68032283F83520032315E07B681B684E
:103920001B6803F00103002BE4D17B68DB6D3F22B1
:103930009A40FB689A607B68002283F834207B6899
:10394000012283F83520002318461037BD4680BD7C
:1039500080B483B000AF78607B6893F83530DBB219
:10396000022B04D07B6880225A6501230CE07B681F
:10397000052283F835207B681B681A687B681B6802
:1039800022F001021A60002318460C37BD465DF88C
:10399000047B704780B586B000AF78600023BB60C1
:1039A0008E4B1B688E4AA2FB03239B0A7B617B68BC
:1039B0009B6D3B613B691B68FB607B68DB6D08228C
:1039C0009A40FB681340002B1AD07B681B681B6869
:1039D00003F00403002B13D07B681B681A687B6814
:1039E0001B6822F004021A607B68DB6D08229A4093
:1039F0003B699A607B685B6D43F001027B685A65A6
:103A00007B68DB6D01229A40FB681340002B12D0CB
:103A10007B681B685B6903F08003002B0BD07B681D
:103A2000DB6D01229A403B699A607B685B6D43F0D5
:103A300002027B685A657B68DB6D04229A40FB6852
:103A40001340002B12D07B681B681B6803F0020335
:103A5000002B0BD07B68DB6D04229A403B699A6097
:103A60007B685B6D43F004027B685A657B68DB6DA5
:103A700010229A40FB681340002B43D07B681B68E0
:103A80001B6803F00803002B3CD07B68DB6D102221
:103A90009A403B699A607B681B681B6803F480232B
:103AA000002B18D07B681B681B6803F40023002BD5
:103AB00008D17B681B6C002B24D07B681B6C78685A
:103AC00098471FE07B689B6C002B1BD07B689B6C2E
:103AD0007868984716E07B681B681B6803F480735E
:103AE000002B07D17B681B681A687B681B6822F073
:103AF00008021A607B681B6C002B03D07B681B6C70
:103B0000786898477B68DB6D20229A40FB681340F9
:103B1000002B00F08F807B681B681B6803F010038C
:103B2000002B00F087807B68DB6D20229A403B6988
:103B30009A607B6893F83530DBB2052B36D17B6811
:103B40001B681A687B681B6822F016021A607B6883
:103B50001B685A697B681B6822F080025A617B6887
:103B60001B6C002B03D17B689B6C002B07D07B6800
:103B70001B681A687B681B6822F008021A607B6861
:103B8000DB6D3F229A403B699A607B68002283F894
:103B900034207B68012283F835207B681B6D002B65
:103BA0007ED07B681B6D7868984779E07B681B68DE
:103BB0001B6803F48023002B1DD07B681B681B68E7
:103BC00003F40023002B0DD17B685B6C002B31D0FC
:103BD0007B685B6C786898472CE000BF3404002059
:103BE000B5814E1B7B68DB6B002B23D07B68DB6BC6
:103BF000786898471EE07B681B681B6803F4807335
:103C0000002B0FD17B681B681A687B681B6822F049
:103C100010021A607B68002283F834207B6801223E
:103C200083F835207B68DB6B002B03D07B68DB6B74
:103C3000786898477B685B6D002B32D07B685B6D42
:103C400003F00103002B22D07B68052283F8352086
:103C50007B681B681A687B681B6822F001021A6087
:103C6000BB680133BB607A699A4207D37B681B68E3
:103C70001B6803F00103002BF2D100E000BF7B685A
:103C8000002283F834207B68012283F835207B688A
:103C9000DB6C002B05D07B68DB6C7868984700E014
:103CA00000BF1837BD4680BD80B483B000AF7860D8
:103CB0007B6893F83530DBB218460C37BD465DF8AB
:103CC000047B704780B485B000AFF860B9607A605B
:103CD0003B60FB681B681A68FB681B6822F4802243
:103CE0001A60FB681B683A685A60FB689B68402B47
:103CF00008D1FB681B687A689A60FB681B68BA6821
:103D0000DA6007E0FB681B68BA689A60FB681B68AA
:103D10007A68DA6000BF1437BD465DF8047B7047EF
:103D200080B485B000AF78607B681B68DBB2103B65
:103D3000144AA2FB03231B09FB60134AFB681344CC
:103D40001B781A467B68DA65FB68032B09D97B6808
:103D50001B6823F47F7323F003031A1D7B689A65A5
:103D600007E07B681B6823F47F7323F003037A6802
:103D700093657B689B6D18461437BD465DF8047BE0
:103D8000704700BFABAAAAAAB83E010880B485B0AC
:103D900000AF78600023FB737B689B6ABB607B6825
:103DA0009B69002B1FD1BB68032B56D801A252F888
:103DB00023F000BFC53D0008D73D0008C53D000801
:103DC0005B3E00087B68DB6A03F08073002B46D003
:103DD0000123FB7343E07B68DB6AB3F1C07F40D112
:103DE0000123FB733DE07B689B69B3F5005F21D144
:103DF000BB68032B37D801A252F823F00D3E000810
:103E0000133E00080D3E0008253E00080123FB7309
:103E100030E07B68DB6A03F08073002B25D0012340
:103E2000FB7322E07B68DB6AB3F1C07F1FD1012303
:103E3000FB731CE0BB68022B03D9BB68032B03D0C8
:103E400018E00123FB7315E07B68DB6A03F08073E5
:103E5000002B0ED00123FB730BE000BF0AE000BF74
:103E600008E000BF06E000BF04E000BF02E000BFC2
:103E700000E000BFFB7B18461437BD465DF8047BAD
:103E8000704700BF80B489B000AF7860396000230C
:103E90007B6100233B610023BB610023FB616BE17D
:103EA0000122FB6902FA03F37B613B681B687A69B4
:103EB00013403B613A697B699A4240F05A813B6802
:103EC0005B6803F00303012B05D03B685B6803F0DC
:103ED0000303022B30D17B689B68BB61FB695B00ED
:103EE000032202FA03F3DB43BA691340BB613B6868
:103EF000DA68FB695B0002FA03F3BA691343BB613A
:103F00007B68BA699A607B685B68BB610122FB6968
:103F100002FA03F3DB43BA691340BB613B685B6899
:103F20001B0903F00102FB6902FA03F3BA691343A8
:103F3000BB617B68BA695A603B685B6803F0030346
:103F4000032B17D07B68DB68BB61FB695B00032236
:103F500002FA03F3DB43BA691340BB613B689A681A
:103F6000FB695B0002FA03F3BA691343BB617B6828
:103F7000BA69DA603B685B6803F00303022B23D164
:103F8000FB69DA087B68083253F82230BB61FB69B1
:103F900003F007039B000F2202FA03F3DB43BA6925
:103FA0001340BB613B681A69FB6903F007039B0080
:103FB00002FA03F3BA691343BB61FB69DA087B6851
:103FC0000832B96943F822107B681B68BB61FB6942
:103FD0005B00032202FA03F3DB43BA691340BB61BF
:103FE0003B685B6803F00302FB695B0002FA03F3C2
:103FF000BA691343BB617B68BA691A603B685B6846
:1040000003F08053002B00F0B4800023FB60604B72
:104010005B6C5F4A43F4804353645D4B5B6C03F419
:104020008043FB60FB685B4AFB699B08023352F8E4
:104030002330BB61FB6903F003039B000F2202FAEC
:1040400003F3DB43BA691340BB617B68524A934276
:104050002BD07B68514A934225D07B68504A9342CB
:104060001FD07B684F4A934219D07B684E4A9342D7
:1040700013D07B684D4A93420DD07B684C4A9342E3
:1040800007D07B684B4A934201D107230EE00823F7
:104090000CE006230AE0052308E0042306E00323DE
:1040A00004E0022302E0012300E00023FA6902F0A9
:1040B000030292009340BA691343BB613549FB691F
:1040C0009B080233BA6941F823203B4B1B68BB6154
:1040D0003B69DB43BA691340BB613B685B6803F42F
:1040E0008033002B03D0BA693B691343BB61324A6A
:1040F000BB691360304B5B68BB613B69DB43BA69EA
:104100001340BB613B685B6803F40033002B03D0B2
:10411000BA693B691343BB61274ABB695360264BAD
:104120009B68BB613B69DB43BA691340BB613B6879
:104130005B6803F48013002B03D0BA693B69134317
:10414000BB611D4ABB6993601B4BDB68BB613B696C
:10415000DB43BA691340BB613B685B6803F400133F
:10416000002B03D0BA693B691343BB61124ABB6998
:10417000D360FB690133FB61FB690F2B7FF690AEC7
:1041800000BF00BF2437BD465DF8047B704700BF09
:1041900000380240003801400000024000040240A4
:1041A00000080240000C02400010024000140240CF
:1041B00000180240001C0240003C014080B483B063
:1041C00000AF78600B467B8013467B707B78002BBA
:1041D00003D07A887B689A6103E07B881A047B6845
:1041E0009A6100BF0C37BD465DF8047B704780B50F
:1041F00082B000AF78607B68002B01D1012341E0E1
:104200007B6893F83D30DBB2002B06D17B6800223F
:1042100083F83C207868FDF729FF7B68022283F849
:104220003D207B681A687B6804331946104600F00D
:10423000D1FA7B68012283F846207B68012283F84B
:104240003E207B68012283F83F207B68012283F8AF
:1042500040207B68012283F841207B68012283F89B
:1042600042207B68012283F843207B68012283F887
:1042700044207B68012283F845207B68012283F873
:104280003D20002318460837BD4680BD80B582B06A
:1042900000AF78607B68002B01D1012341E07B688F
:1042A00093F83D30DBB2002B06D17B68002283F807
:1042B0003C20786800F039F87B68022283F83D20C2
:1042C0007B681A687B6804331946104600F082FA4E
:1042D0007B68012283F846207B68012283F83E2018
:1042E0007B68012283F83F207B68012283F840200D
:1042F0007B68012283F841207B68012283F84220F9
:104300007B68012283F843207B68012283F84420E4
:104310007B68012283F845207B68012283F83D20D9
:10432000002318460837BD4680BD80B483B000AF77
:10433000786000BF0C37BD465DF8047B7047000015
:1043400080B584B000AF786039603B68002B09D13C
:104350007B6893F83E30DBB2012B14BF01230023AE
:10436000DBB222E03B68042B09D17B6893F83F3035
:10437000DBB2012B14BF01230023DBB215E03B6845
:10438000082B09D17B6893F84030DBB2012B14BFB6
:1043900001230023DBB208E07B6893F84130DBB2F5
:1043A000012B14BF01230023DBB2002B01D001231A
:1043B0007CE03B68002B04D17B68022283F83E201E
:1043C00013E03B68042B04D17B68022283F83F2072
:1043D0000BE03B68082B04D17B68022283F8402065
:1043E00003E07B68022283F841207B681B6801227E
:1043F0003968184600F0D8FC7B681B682D4A934248
:1044000004D07B681B682C4A934201D1012300E051
:104410000023002B07D07B681B685A6C7B681B68E5
:1044200042F400425A647B681B68224A934222D0BD
:104430007B681B68B3F1804F1DD07B681B681F4AE7
:10444000934218D07B681B681D4A934213D07B6847
:104450001B681C4A93420ED07B681B68164A934225
:1044600009D07B681B68184A934204D07B681B689C
:10447000164A934211D17B681B689B6803F00703BF
:10448000FB60FB68062B10D07B681B681A687B6892
:104490001B6842F001021A6007E07B681B681A681B
:1044A0007B681B6842F001021A600023184610372F
:1044B000BD4680BD000001400004014000040040F2
:1044C00000080040000C004000400140001800407F
:1044D00080B584B000AFF860B9607A60FB6893F88B
:1044E0003C30012B01D10223ACE0FB68012283F8B0
:1044F0003C207B680C2B00F29F8001A252F823F035
:104500003545000839460008394600083946000894
:104510007545000839460008394600083946000844
:10452000B7450008394600083946000839460008F2
:10453000F7450008FB681B68B968184600F0EAF9FF
:10454000FB681B689A69FB681B6842F008029A6165
:10455000FB681B689A69FB681B6822F004029A6179
:10456000FB681B689969BB681A69FB681B680A438A
:104570009A6162E0FB681B68B968184600F03AFA75
:10458000FB681B689A69FB681B6842F400629A61C9
:10459000FB681B689A69FB681B6822F480629A6159
:1045A000FB681B689969BB681B691A02FB681B687A
:1045B0000A439A6141E0FB681B68B968184600F03D
:1045C0008FFAFB681B68DA69FB681B6842F0080217
:1045D000DA61FB681B68DA69FB681B6822F0040279
:1045E000DA61FB681B68D969BB681A69FB681B68DC
:1045F0000A43DA6121E0FB681B68B968184600F0DD
:10460000E3FAFB681B68DA69FB681B6842F4006226
:10461000DA61FB681B68DA69FB681B6822F4806258
:10462000DA61FB681B68D969BB681B691A02FB6801
:104630001B680A43DA6100E000BFFB68002283F8D0
:104640003C20002318461037BD4680BD80B584B09D
:1046500000AF786039607B6893F83C30012B01D162
:104660000223B3E07B68012283F83C207B680222AE
:1046700083F83D207B681B689B68FB60FB6823F028
:104680007703FB60FB6823F47F43FB607B681B6858
:10469000FA689A603B681B68B3F5005F3ED0B3F5DB
:1046A000005F00F28780B3F5805F00F08580B3F58E
:1046B000805F7FD8702B1AD0702B7BD8602B50D0A6
:1046C000602B77D8502B3CD0502B73D8402B58D030
:1046D000402B6FD8302B64D0302B6BD8202B60D080
:1046E000202B67D8002B5CD0102B5AD062E07B685F
:1046F00018683B6899683B685A683B68DB6800F05B
:1047000033FB7B681B689B68FB60FB6843F07703A7
:10471000FB607B681B68FA689A604EE07B681868EB
:104720003B6899683B685A683B68DB6800F01CFB93
:104730007B681B689A687B681B6842F480429A60B9
:104740003BE07B6818683B6859683B68DB681A4641
:1047500000F090FA7B681B685021184600F0E9FAD7
:104760002BE07B6818683B6859683B68DB681A4631
:1047700000F0AFFA7B681B686021184600F0D9FA98
:104780001BE07B6818683B6859683B68DB681A4621
:1047900000F070FA7B681B684021184600F0C9FAE7
:1047A0000BE07B681A683B681B681946104600F0EE
:1047B000C0FA02E000BF00E000BF7B68012283F87E
:1047C0003D207B68002283F83C20002318461037E8
:1047D000BD4680BD80B485B000AF786039607B682D
:1047E0001B68FB607B68404A934213D07B68B3F13F
:1047F000804F0FD07B683D4A93420BD07B683C4A88
:10480000934207D07B683B4A934203D07B683A4A85
:10481000934208D1FB6823F07003FB603B685B6840
:10482000FA681343FB607B682F4A93422BD07B6866
:10483000B3F1804F27D07B682C4A934223D07B680A
:104840002B4A93421FD07B682A4A93421BD07B6835
:10485000294A934217D07B68284A934213D07B6839
:10486000274A93420FD07B68264A93420BD07B683D
:10487000254A934207D07B68244A934203D07B6841
:10488000234A934208D1FB6823F44073FB603B68E2
:10489000DB68FA681343FB60FB6823F080023B6827
:1048A0005B691343FB607B68FA681A603B689A682F
:1048B0007B68DA623B681A687B689A627B680A4A9E
:1048C000934203D07B680C4A934203D13B681A6938
:1048D0007B681A637B6801225A6100BF1437BD46AA
:1048E0005DF8047B704700BF0000014000040040F9
:1048F00000080040000C004000040140004001405E
:10490000004401400048014000180040001C0040E5
:104910000020004080B487B000AF786039607B68C9
:104920001B6A23F001027B681A627B681B6A7B6149
:104930007B685B683B617B689B69FB60FB6823F07D
:104940007003FB60FB6823F00303FB603B681B689C
:10495000FA681343FB607B6923F002037B613B68C9
:104960009B687A6913437B617B68204A934203D03A
:104970007B681F4A93420CD17B6923F008037B615B
:104980003B68DB687A6913437B617B6923F004032E
:104990007B617B68154A934203D07B68144A93423B
:1049A00011D13B6923F480733B613B6923F40073AD
:1049B0003B613B685B693A6913433B613B689B69B8
:1049C0003A6913433B617B683A695A607B68FA68CD
:1049D0009A613B685A687B685A637B687A691A6295
:1049E00000BF1C37BD465DF8047B704700000140E6
:1049F0000004014080B487B000AF786039607B6804
:104A00001B6A23F010027B681A627B681B6A7B6159
:104A10007B685B683B617B689B69FB60FB6823F498
:104A2000E043FB60FB6823F44073FB603B681B685A
:104A30001B02FA681343FB607B6923F020037B6150
:104A40003B689B681B017A6913437B617B68224A40
:104A5000934203D07B68214A93420DD17B6923F0B6
:104A600080037B613B68DB681B017A6913437B61D0
:104A70007B6923F040037B617B68174A934203D034
:104A80007B68164A934213D13B6923F480633B61F0
:104A90003B6923F400633B613B685B699B003A69B7
:104AA00013433B613B689B699B003A6913433B613D
:104AB0007B683A695A607B68FA689A613B685A6811
:104AC0007B689A637B687A691A6200BF1C37BD46AF
:104AD0005DF8047B704700BF000001400004014006
:104AE00080B487B000AF786039607B681B6A23F4BC
:104AF00080727B681A627B681B6A7B617B685B687B
:104B00003B617B68DB69FB60FB6823F07003FB6043
:104B1000FB6823F00303FB603B681B68FA681343E0
:104B2000FB607B6923F400737B613B689B681B021D
:104B30007A6913437B617B68214A934203D07B6887
:104B4000204A93420DD17B6923F400637B613B686B
:104B5000DB681B027A6913437B617B6923F4806302
:104B60007B617B68164A934203D07B68154A934267
:104B700013D13B6923F480533B613B6923F4005319
:104B80003B613B685B691B013A6913433B613B68CE
:104B90009B691B013A6913433B617B683A695A6020
:104BA0007B68FA68DA613B685A687B68DA637B681D
:104BB0007A691A6200BF1C37BD465DF8047B7047F6
:104BC000000001400004014080B487B000AF78606D
:104BD00039607B681B6A23F480527B681A627B68A9
:104BE0001B6A3B617B685B687B617B68DB69FB60A0
:104BF000FB6823F4E043FB60FB6823F44073FB6035
:104C00003B681B681B02FA681343FB603B6923F493
:104C100000533B613B689B681B033A6913433B614C
:104C20007B68124A934203D07B68114A934209D1B0
:104C30007B6923F480437B613B685B699B017A69F4
:104C400013437B617B687A695A607B68FA68DA6132
:104C50003B685A687B681A647B683A691A6200BFCD
:104C60001C37BD465DF8047B704700BF0000014063
:104C70000004014080B487B000AFF860B9607A608A
:104C8000FB681B6A7B61FB681B6A23F00102FB68FF
:104C90001A62FB689B693B613B6923F0F0033B614F
:104CA0007B681B013A6913433B617B6923F00A036C
:104CB0007B617A69BB6813437B61FB683A699A61DF
:104CC000FB687A691A6200BF1C37BD465DF8047B39
:104CD000704780B487B000AFF860B9607A60FB6855
:104CE0001B6A23F01002FB681A62FB689B697B61F8
:104CF000FB681B6A3B617B6923F470437B617B68C3
:104D00001B037A6913437B613B6923F0A0033B617A
:104D1000BB681B013A6913433B61FB687A699A617E
:104D2000FB683A691A6200BF1C37BD465DF8047B18
:104D3000704780B485B000AF786039607B689B684D
:104D4000FB60FB6823F07003FB603A68FB68134369
:104D500043F00703FB607B68FA689A6000BF143772
:104D6000BD465DF8047B704780B487B000AFF86043
:104D7000B9607A603B60FB689B687B617B6923F468
:104D80007F437B613B681A027B681A43BB6813430D
:104D90007A6913437B61FB687A699A6000BF1C37AC
:104DA000BD465DF8047B704780B487B000AFF86003
:104DB000B9607A60BB6803F01F03012202FA03F3B3
:104DC0007B61FB681A6A7B69DB431A40FB681A62E5
:104DD000FB681A6ABB6803F01F03796801FA03F3E2
:104DE0001A43FB681A6200BF1C37BD465DF8047B9E
:104DF0007047000080B485B000AF786039607B6890
:104E000093F83C30012B01D102235AE07B68012248
:104E100083F83C207B68022283F83D207B681B6876
:104E20005B68FB607B681B689B68BB60FB6823F06A
:104E30007003FB603B681B68FA681343FB607B6888
:104E40001B68FA685A607B681B68214A934222D02B
:104E50007B681B68B3F1804F1DD07B681B681D4ABF
:104E6000934218D07B681B681B4A934213D07B681F
:104E70001B681A4A93420ED07B681B68184A9342FB
:104E800009D07B681B68174A934204D07B681B6873
:104E9000154A93420CD1BB6823F08003BB603B688A
:104EA0005B68BA681343BB607B681B68BA689A602A
:104EB0007B68012283F83D207B68002283F83C2038
:104EC000002318461437BD465DF8047B704700BFC9
:104ED000000001400004004000080040000C0040B9
:104EE00000040140004001400018004080B582B03D
:104EF00000AF78607B68002B01D101233FE07B6825
:104F000093F83D30DBB2002B06D17B68002283F89A
:104F10003C207868FDF780F97B68242283F83D20E7
:104F20007B681B68DA687B681B6822F40052DA60D1
:104F3000786800F0D9FD7B681B681A697B681B687C
:104F400022F490421A617B681B685A697B681B686F
:104F500022F02A025A617B681B68DA687B681B684A
:104F600042F40052DA607B6800221A647B682022D7
:104F700083F83D207B68202283F83E2000231846DA
:104F80000837BD4680BD80B58AB002AFF860B96011
:104F90003B601346FB8000237B61FB6893F83D3048
:104FA000DBB2202B7CD1BB68002B02D0FB88002B0E
:104FB00001D1012375E0FB6893F83C30012B01D14E
:104FC00002236EE0FB68012283F83C20FB6800228C
:104FD0001A64FB68212283F83D20FDF769FD7861A2
:104FE000FB68FA889A84FB68FA88DA84FB689B6815
:104FF000B3F5805F08D1FB681B69002B04D1002347
:10500000FB61BB68BB6103E0BB68FB610023BB6164
:10501000FB68002283F83C202AE03B6800937B6910
:1050200000228021F86800F05BFB0346002B01D0D2
:10503000032336E0FB69002B0BD1BB691B881A46A2
:10504000FB681B68C2F308025A60BB690233BB618C
:1050500007E0FB691A78FB681B685A60FB6901333B
:10506000FB61FB68DB8C9BB2013B9AB2FB68DA8484
:10507000FB68DB8C9BB2002BCFD13B6800937B6934
:1050800000224021F86800F02BFB0346002B01D0E2
:10509000032306E0FB68202283F83D20002300E084
:1050A000022318462037BD4680BD80B584B000AFCE
:1050B000F860B9601346FB80FB6893F83E30DBB2C2
:1050C000202B1DD1BB68002B02D0FB88002B01D107
:1050D000012316E0FB6893F83C30012B01D1022339
:1050E0000FE0FB68012283F83C20FB6800221A6372
:1050F000FB881A46B968F86800F03CFB034600E0FC
:10510000022318461037BD4680BD80B584B000AF7D
:1051100078600023FB607B681B685B6903F0800399
:10512000802B0CBF01230023DBB2FB607B6893F86C
:105130003D30DBB2212B16D1FB68002B13D07B68EE
:105140001B685A697B681B6822F080025A617B6881
:105150005B6B002B04D07B685B6B1846FEF788FB0B
:10516000786800F06BFB7B681B685B6903F04003A9
:10517000402B0CBF01230023DBB2FB607B6893F85C
:105180003E30DBB2222B16D1FB68002B13D07B689C
:105190001B685A697B681B6822F040025A617B6871
:1051A0009B6B002B04D07B689B6B1846FEF760FB63
:1051B000786800F059FB002318461037BD4680BDC3
:1051C00080B58AB000AF78607B681B681B687B6223
:1051D0007B681B68DB683B627B681B685B69FB6103
:1051E0000023BB6100237B617B6A03F00F03BB617B
:1051F000BB69002B0DD17B6A03F02003002B08D084
:105200003B6A03F02003002B03D0786800F0D5FB45
:105210007CE1BB69002B00F0B180FB6903F0010366
:10522000002B05D13B6A03F49073002B00F0A6809D
:105230007B6A03F00103002B0AD03B6A03F48073FE
:10524000002B05D07B681B6C43F001027B681A645D
:105250007B6A03F00403002B0AD0FB6903F001030F
:10526000002B05D07B681B6C43F002027B681A643C
:105270007B6A03F00203002B0AD0FB6903F00103F1
:10528000002B05D07B681B6C43F004027B681A641A
:105290007B6A03F00803002B0FD03B6A03F0200366
:1052A000002B04D1FB6903F00103002B05D07B68C0
:1052B0001B6C43F008027B681A647B681B6C002B34
:1052C00000F01F817B6A03F02003002B07D03B6AAC
:1052D00003F02003002B02D0786800F06EFB7B689F
:1052E0001B685B6903F04003402B0CBF01230023C4
:1052F000DBB27B617B681B6C03F00803002B02D1DF
:105300007B69002B31D0786800F0AEFA7B681B68AF
:105310005B6903F04003402B23D17B681B685A690B
:105320007B681B6822F040025A617B689B6B002BF4
:1053300013D07B689B6B774A1A657B689B6B18461A
:10534000FEF706FB0346002B16D07B689B6B1B6D9C
:105350007A68926B104698470EE0786800F0FAF889
:105360000AE0786800F0F6F806E0786800F0F2F8F5
:105370007B6800221A64C4E000BFC2E07B681B6B3C
:10538000012B40F0A2807B6A03F01003002B00F099
:105390009C803B6A03F01003002B00F096800023F2
:1053A000FB607B681B681B68FB607B681B685B6835
:1053B000FB60FB687B681B685B6903F04003402B64
:1053C0004FD17B689B6B1B685B683B823B8A002BE1
:1053D00000F099807B689B8D3A8A9A4280F0938096
:1053E0007B683A8ADA857B689B6BDB69B3F5807FE3
:1053F0002BD07B681B68DA687B681B6822F480729C
:10540000DA607B681B685A697B681B6822F00102BE
:105410005A617B681B685A697B681B6822F04002EE
:105420005A617B68202283F83E207B6800221A6341
:105430007B681B68DA687B681B6822F01002DA6000
:105440007B689B6B1846FEF713FA7B689A8D7B6826
:10545000DB8D9BB2D31A9BB21946786800F084F8B2
:1054600051E07B689A8D7B68DB8D9BB2D31A7B827F
:105470007B68DB8D9BB2002B47D07B8A002B44D00E
:105480007B681B68DA687B681B6822F49072DA60BC
:105490007B681B685A697B681B6822F001025A61AD
:1054A0007B68202283F83E207B6800221A637B6899
:1054B0001B68DA687B681B6822F01002DA607B8A5E
:1054C0001946786800F050F81FE07B6A03F080030B
:1054D000002B08D03B6A03F08003002B03D07868D0
:1054E00000F003FA12E07B6A03F04003002B0DD0BA
:1054F0003B6A03F04003002B08D0786800F045FABF
:1055000004E000BF02E000BF00E000BF2837BD4656
:1055100080BD00BFC358000880B483B000AF78607E
:1055200000BF0C37BD465DF8047B704780B483B084
:1055300000AF786000BF0C37BD465DF8047B704754
:1055400080B483B000AF786000BF0C37BD465DF813
:10555000047B704780B483B000AF786000BF0C3725
:10556000BD465DF8047B704780B483B000AF7860BF
:105570000B467B8000BF0C37BD465DF8047B70474F
:1055800080B584B000AF78607B689B6BFB607B6804
:105590001B681B6803F48073002B2AD1FB68002270
:1055A000DA85FB681B68DA68FB681B6822F4807286
:1055B000DA60FB681B685A69FB681B6822F001020D
:1055C0005A61FB681B685A69FB681B6822F040023D
:1055D0005A61FB68202283F83E20FB681B6B012B7D
:1055E00007D1FB681B68DA68FB681B6822F01002B1
:1055F000DA60FB681B6B012B06D1FB689B8D19469B
:10560000F868FFF7B1FF02E0F868FFF78FFF00BF0F
:105610001037BD4680BD80B584B000AF78607B6830
:105620009B6BFB60FB681B6B012B08D1FB689B8DA0
:105630005B089BB21946F868FFF796FF02E0F8682E
:10564000FFF77EFF00BF1037BD4680BD80B584B038
:1056500000AF78600023FB607B689B6BBB60BB681E
:105660001B685B6903F08003802B0CBF01230023C0
:10567000DBB2FB60BB6893F83D30DBB2212B08D175
:10568000FB68002B05D0BB680022DA84B86800F004
:10569000D5F8BB681B685B6903F04003402B0CBF67
:1056A00001230023DBB2FB60BB6893F83E30DBB222
:1056B000222B08D1FB68002B05D0BB680022DA85BD
:1056C000B86800F0D1F8BB681B6C43F01002BB68EF
:1056D0001A64B868FFF73EFF00BF1037BD4680BDB3
:1056E00080B584B000AFF860B9603B601346FB71D1
:1056F0002CE0BB69B3F1FF3F28D0BB69002B07D07A
:10570000FDF7D6F902463B68D31ABA699A421DD210
:10571000FB681B68DA68FB681B6822F4D072DA60E9
:10572000FB681B685A69FB681B6822F001025A611A
:10573000FB68202283F83D20FB68202283F83E206E
:10574000FB68002283F83C2003230FE0FB681B6802
:105750001A68BB681340BA689A420CBF0123002341
:10576000DBB21A46FB799A42C3D0002318461037A1
:10577000BD4680BD80B586B000AFF860B960134605
:10578000FB80BA68FB689A62FB68FA889A85FB68B6
:1057900000221A64FB68222283F83E20FB689B6B80
:1057A000234ADA63FB689B6B224A1A64FB689B6B93
:1057B000214ADA64FB689B6B00221A6507F1080333
:1057C0007B61FB68986BFB681B68043319467B6937
:1057D0001A68FB88FDF7F4FF00233B61FB681B6838
:1057E0001B683B61FB681B685B683B613B69FB684E
:1057F000002283F83C20FB681B68DA68FB681B68A2
:1058000042F48072DA60FB681B685A69FB681B68A7
:1058100042F001025A61FB681B685A69FB681B6809
:1058200042F040025A61002318461837BD4680BD39
:1058300081550008175600084D56000880B483B003
:1058400000AF78607B681B68DA687B681B6822F0B1
:10585000C002DA607B68202283F83D2000BF0C374D
:10586000BD465DF8047B704780B483B000AF7860BC
:105870007B681B68DA687B681B6822F49072DA60C8
:105880007B681B685A697B681B6822F001025A61B9
:105890007B681B6B012B07D17B681B68DA687B6810
:1058A0001B6822F01002DA607B68202283F83E2019
:1058B0007B6800221A6300BF0C37BD465DF8047B8D
:1058C000704780B584B000AF78607B689B6BFB60ED
:1058D000FB680022DA85FB680022DA84F868FFF7AB
:1058E00039FE00BF1037BD4680BD80B485B000AF23
:1058F00078607B6893F83D30DBB2212B3ED17B682A
:105900009B68B3F5805F14D17B681B69002B10D1B5
:105910007B681B6AFB60FB681B881A467B681B68F8
:10592000C2F308025A607B681B6A9A1C7B681A6281
:1059300008E07B681B6A591C7A6811621A787B68D8
:105940001B685A607B68DB8C9BB2013B9BB27A6818
:105950001946D184002B0FD17B681B68DA687B68FD
:105960001B6822F08002DA607B681B68DA687B685B
:105970001B6842F04002DA60002300E00223184670
:105980001437BD465DF8047B704780B582B000AF28
:1059900078607B681B68DA687B681B6822F04002CD
:1059A000DA607B68202283F83D207868FFF7B4FD39
:1059B000002318460837BD4680BD80B584B000AFCF
:1059C00078607B6893F83E30DBB2222B40F0878012
:1059D0007B689B68B3F5805F17D17B681B69002BE0
:1059E00013D10023FB607B689B6ABB607B681B68EC
:1059F0005B689BB2C3F308039AB2BB681A807B68EA
:105A00009B6A9A1C7B689A6226E07B689B6AFB60B3
:105A10000023BB607B689B68B3F5805F07D07B6821
:105A20009B68002B0AD17B681B69002B06D17B6821
:105A30001B685B68DAB2FB681A7008E07B681B6859
:105A40005B68DBB203F07F03DAB2FB681A707B6835
:105A50009B6A5A1C7B689A627B68DB8D9BB2013B18
:105A60009BB27A681946D185002B36D17B681B68BA
:105A7000DA687B681B6822F02002DA607B681B68AA
:105A8000DA687B681B6822F48072DA607B681B68C6
:105A90005A697B681B6822F001025A617B682022E8
:105AA00083F83E207B681B6B012B0ED17B681B6843
:105AB000DA687B681B6822F01002DA607B689B8DD5
:105AC00019467868FFF750FD02E07868FFF72EFD71
:105AD0007B6800221A63002302E0002300E0022317
:105AE00018461037BD4680BD2DE9B04FC0B000AF9D
:105AF000C7F8F400D7F8F4301B681B6923F4405052
:105B0000D7F8F430D968D7F8F4301A6840EA0103BE
